{
  "contractName": "Estate",
  "abi": [
    {
      "inputs": [],
      "stateMutability": "nonpayable",
      "type": "constructor"
    },
    {
      "anonymous": false,
      "inputs": [
        {
          "indexed": true,
          "internalType": "address",
          "name": "owner",
          "type": "address"
        },
        {
          "indexed": true,
          "internalType": "address",
          "name": "approved",
          "type": "address"
        },
        {
          "indexed": true,
          "internalType": "uint256",
          "name": "tokenId",
          "type": "uint256"
        }
      ],
      "name": "Approval",
      "type": "event"
    },
    {
      "anonymous": false,
      "inputs": [
        {
          "indexed": true,
          "internalType": "address",
          "name": "owner",
          "type": "address"
        },
        {
          "indexed": true,
          "internalType": "address",
          "name": "operator",
          "type": "address"
        },
        {
          "indexed": false,
          "internalType": "bool",
          "name": "approved",
          "type": "bool"
        }
      ],
      "name": "ApprovalForAll",
      "type": "event"
    },
    {
      "anonymous": false,
      "inputs": [
        {
          "indexed": false,
          "internalType": "address",
          "name": "_seller",
          "type": "address"
        },
        {
          "indexed": false,
          "internalType": "address",
          "name": "_buyer",
          "type": "address"
        },
        {
          "indexed": false,
          "internalType": "uint256",
          "name": "_price",
          "type": "uint256"
        }
      ],
      "name": "NftBought",
      "type": "event"
    },
    {
      "anonymous": false,
      "inputs": [
        {
          "indexed": true,
          "internalType": "address",
          "name": "previousOwner",
          "type": "address"
        },
        {
          "indexed": true,
          "internalType": "address",
          "name": "newOwner",
          "type": "address"
        }
      ],
      "name": "OwnershipTransferred",
      "type": "event"
    },
    {
      "anonymous": false,
      "inputs": [
        {
          "indexed": true,
          "internalType": "address",
          "name": "from",
          "type": "address"
        },
        {
          "indexed": true,
          "internalType": "address",
          "name": "to",
          "type": "address"
        },
        {
          "indexed": true,
          "internalType": "uint256",
          "name": "tokenId",
          "type": "uint256"
        }
      ],
      "name": "Transfer",
      "type": "event"
    },
    {
      "inputs": [
        {
          "internalType": "address",
          "name": "to",
          "type": "address"
        },
        {
          "internalType": "uint256",
          "name": "tokenId",
          "type": "uint256"
        }
      ],
      "name": "approve",
      "outputs": [],
      "stateMutability": "nonpayable",
      "type": "function"
    },
    {
      "inputs": [
        {
          "internalType": "address",
          "name": "owner",
          "type": "address"
        }
      ],
      "name": "balanceOf",
      "outputs": [
        {
          "internalType": "uint256",
          "name": "",
          "type": "uint256"
        }
      ],
      "stateMutability": "view",
      "type": "function",
      "constant": true
    },
    {
      "inputs": [
        {
          "internalType": "uint256",
          "name": "tokenId",
          "type": "uint256"
        }
      ],
      "name": "getApproved",
      "outputs": [
        {
          "internalType": "address",
          "name": "",
          "type": "address"
        }
      ],
      "stateMutability": "view",
      "type": "function",
      "constant": true
    },
    {
      "inputs": [
        {
          "internalType": "address",
          "name": "owner",
          "type": "address"
        },
        {
          "internalType": "address",
          "name": "operator",
          "type": "address"
        }
      ],
      "name": "isApprovedForAll",
      "outputs": [
        {
          "internalType": "bool",
          "name": "",
          "type": "bool"
        }
      ],
      "stateMutability": "view",
      "type": "function",
      "constant": true
    },
    {
      "inputs": [],
      "name": "name",
      "outputs": [
        {
          "internalType": "string",
          "name": "",
          "type": "string"
        }
      ],
      "stateMutability": "view",
      "type": "function",
      "constant": true
    },
    {
      "inputs": [],
      "name": "owner",
      "outputs": [
        {
          "internalType": "address",
          "name": "",
          "type": "address"
        }
      ],
      "stateMutability": "view",
      "type": "function",
      "constant": true
    },
    {
      "inputs": [
        {
          "internalType": "uint256",
          "name": "tokenId",
          "type": "uint256"
        }
      ],
      "name": "ownerOf",
      "outputs": [
        {
          "internalType": "address",
          "name": "",
          "type": "address"
        }
      ],
      "stateMutability": "view",
      "type": "function",
      "constant": true
    },
    {
      "inputs": [],
      "name": "renounceOwnership",
      "outputs": [],
      "stateMutability": "nonpayable",
      "type": "function"
    },
    {
      "inputs": [
        {
          "internalType": "address",
          "name": "from",
          "type": "address"
        },
        {
          "internalType": "address",
          "name": "to",
          "type": "address"
        },
        {
          "internalType": "uint256",
          "name": "tokenId",
          "type": "uint256"
        }
      ],
      "name": "safeTransferFrom",
      "outputs": [],
      "stateMutability": "nonpayable",
      "type": "function"
    },
    {
      "inputs": [
        {
          "internalType": "address",
          "name": "from",
          "type": "address"
        },
        {
          "internalType": "address",
          "name": "to",
          "type": "address"
        },
        {
          "internalType": "uint256",
          "name": "tokenId",
          "type": "uint256"
        },
        {
          "internalType": "bytes",
          "name": "_data",
          "type": "bytes"
        }
      ],
      "name": "safeTransferFrom",
      "outputs": [],
      "stateMutability": "nonpayable",
      "type": "function"
    },
    {
      "inputs": [
        {
          "internalType": "address",
          "name": "operator",
          "type": "address"
        },
        {
          "internalType": "bool",
          "name": "approved",
          "type": "bool"
        }
      ],
      "name": "setApprovalForAll",
      "outputs": [],
      "stateMutability": "nonpayable",
      "type": "function"
    },
    {
      "inputs": [],
      "name": "symbol",
      "outputs": [
        {
          "internalType": "string",
          "name": "",
          "type": "string"
        }
      ],
      "stateMutability": "view",
      "type": "function",
      "constant": true
    },
    {
      "inputs": [
        {
          "internalType": "uint256",
          "name": "index",
          "type": "uint256"
        }
      ],
      "name": "tokenByIndex",
      "outputs": [
        {
          "internalType": "uint256",
          "name": "",
          "type": "uint256"
        }
      ],
      "stateMutability": "view",
      "type": "function",
      "constant": true
    },
    {
      "inputs": [
        {
          "internalType": "uint256",
          "name": "",
          "type": "uint256"
        }
      ],
      "name": "tokenIdToPrice",
      "outputs": [
        {
          "internalType": "uint256",
          "name": "",
          "type": "uint256"
        }
      ],
      "stateMutability": "view",
      "type": "function",
      "constant": true
    },
    {
      "inputs": [
        {
          "internalType": "address",
          "name": "owner",
          "type": "address"
        },
        {
          "internalType": "uint256",
          "name": "index",
          "type": "uint256"
        }
      ],
      "name": "tokenOfOwnerByIndex",
      "outputs": [
        {
          "internalType": "uint256",
          "name": "",
          "type": "uint256"
        }
      ],
      "stateMutability": "view",
      "type": "function",
      "constant": true
    },
    {
      "inputs": [],
      "name": "totalSupply",
      "outputs": [
        {
          "internalType": "uint256",
          "name": "",
          "type": "uint256"
        }
      ],
      "stateMutability": "view",
      "type": "function",
      "constant": true
    },
    {
      "inputs": [
        {
          "internalType": "address",
          "name": "from",
          "type": "address"
        },
        {
          "internalType": "address",
          "name": "to",
          "type": "address"
        },
        {
          "internalType": "uint256",
          "name": "tokenId",
          "type": "uint256"
        }
      ],
      "name": "transferFrom",
      "outputs": [],
      "stateMutability": "nonpayable",
      "type": "function"
    },
    {
      "inputs": [
        {
          "internalType": "address",
          "name": "newOwner",
          "type": "address"
        }
      ],
      "name": "transferOwnership",
      "outputs": [],
      "stateMutability": "nonpayable",
      "type": "function"
    },
    {
      "inputs": [
        {
          "internalType": "string",
          "name": "_tokenURI",
          "type": "string"
        }
      ],
      "name": "mint",
      "outputs": [
        {
          "internalType": "uint256",
          "name": "",
          "type": "uint256"
        }
      ],
      "stateMutability": "nonpayable",
      "type": "function"
    },
    {
      "inputs": [
        {
          "internalType": "uint256",
          "name": "tokenId",
          "type": "uint256"
        }
      ],
      "name": "tokenURI",
      "outputs": [
        {
          "internalType": "string",
          "name": "",
          "type": "string"
        }
      ],
      "stateMutability": "view",
      "type": "function",
      "constant": true
    },
    {
      "inputs": [
        {
          "internalType": "bytes4",
          "name": "interfaceId",
          "type": "bytes4"
        }
      ],
      "name": "supportsInterface",
      "outputs": [
        {
          "internalType": "bool",
          "name": "",
          "type": "bool"
        }
      ],
      "stateMutability": "view",
      "type": "function",
      "constant": true
    },
    {
      "inputs": [
        {
          "internalType": "address",
          "name": "to",
          "type": "address"
        },
        {
          "internalType": "uint256",
          "name": "tokenId",
          "type": "uint256"
        }
      ],
      "name": "safeMint",
      "outputs": [],
      "stateMutability": "nonpayable",
      "type": "function"
    },
    {
      "inputs": [
        {
          "internalType": "address",
          "name": "owner",
          "type": "address"
        }
      ],
      "name": "tokensOfOwner",
      "outputs": [
        {
          "internalType": "uint256[]",
          "name": "",
          "type": "uint256[]"
        }
      ],
      "stateMutability": "view",
      "type": "function",
      "constant": true
    },
    {
      "inputs": [],
      "name": "allTokens",
      "outputs": [
        {
          "internalType": "uint256[]",
          "name": "",
          "type": "uint256[]"
        }
      ],
      "stateMutability": "view",
      "type": "function",
      "constant": true
    },
    {
      "inputs": [
        {
          "internalType": "uint256",
          "name": "_tokenId",
          "type": "uint256"
        },
        {
          "internalType": "uint256",
          "name": "_price",
          "type": "uint256"
        }
      ],
      "name": "allowBuy",
      "outputs": [],
      "stateMutability": "nonpayable",
      "type": "function"
    },
    {
      "inputs": [
        {
          "internalType": "uint256",
          "name": "_tokenId",
          "type": "uint256"
        }
      ],
      "name": "disallowBuy",
      "outputs": [],
      "stateMutability": "nonpayable",
      "type": "function"
    },
    {
      "inputs": [
        {
          "internalType": "uint256",
          "name": "_tokenId",
          "type": "uint256"
        }
      ],
      "name": "isBuy",
      "outputs": [
        {
          "internalType": "bool",
          "name": "",
          "type": "bool"
        }
      ],
      "stateMutability": "view",
      "type": "function",
      "constant": true
    },
    {
      "inputs": [
        {
          "internalType": "uint256",
          "name": "_tokenId",
          "type": "uint256"
        }
      ],
      "name": "priceOf",
      "outputs": [
        {
          "internalType": "uint256",
          "name": "",
          "type": "uint256"
        }
      ],
      "stateMutability": "view",
      "type": "function",
      "constant": true
    },
    {
      "inputs": [
        {
          "internalType": "uint256",
          "name": "_tokenId",
          "type": "uint256"
        }
      ],
      "name": "buy",
      "outputs": [],
      "stateMutability": "payable",
      "type": "function",
      "payable": true
    }
  ],
  "bytecode": "0x60806040523480156200001157600080fd5b506040518060400160405280600881526020017f47616d654974656d0000000000000000000000000000000000000000000000008152506040518060400160405280600381526020017f49544d0000000000000000000000000000000000000000000000000000000000815250816000908051906020019062000096929190620001a6565b508060019080519060200190620000af929190620001a6565b505050620000d2620000c6620000d860201b60201c565b620000e060201b60201c565b620002bb565b600033905090565b6000600b60009054906101000a900473ffffffffffffffffffffffffffffffffffffffff16905081600b60006101000a81548173ffffffffffffffffffffffffffffffffffffffff021916908373ffffffffffffffffffffffffffffffffffffffff1602179055508173ffffffffffffffffffffffffffffffffffffffff168173ffffffffffffffffffffffffffffffffffffffff167f8be0079c531659141344cd1fd0a4f28419497f9722a3daafe3b4186f6b6457e060405160405180910390a35050565b828054620001b49062000256565b90600052602060002090601f016020900481019282620001d8576000855562000224565b82601f10620001f357805160ff191683800117855562000224565b8280016001018555821562000224579182015b828111156200022357825182559160200191906001019062000206565b5b50905062000233919062000237565b5090565b5b808211156200025257600081600090555060010162000238565b5090565b600060028204905060018216806200026f57607f821691505b602082108114156200028657620002856200028c565b5b50919050565b7f4e487b7100000000000000000000000000000000000000000000000000000000600052602260045260246000fd5b61420380620002cb6000396000f3fe6080604052600436106101c25760003560e01c80638da5cb5b116100f7578063bbb5e8d311610095578063d96a094a11610064578063d96a094a1461069c578063e985e9c5146106b8578063f2fde38b146106f5578063f4812eb91461071e576101c2565b8063bbb5e8d3146105d0578063c87b56dd146105f9578063d499131214610636578063d85d3d271461065f576101c2565b8063a22cb465116100d1578063a22cb46514610504578063a80d33fb1461052d578063b88d4fde1461056a578063b9186d7d14610593576101c2565b80638da5cb5b1461048557806395d89b41146104b0578063a1448194146104db576101c2565b806342842e0e116101645780636ff97f1d1161013e5780636ff97f1d146103c957806370a08231146103f4578063715018a6146104315780638462151c14610448576101c2565b806342842e0e146103265780634f6ccce71461034f5780636352211e1461038c576101c2565b8063095ea7b3116101a0578063095ea7b31461026c57806318160ddd1461029557806323b872dd146102c05780632f745c59146102e9576101c2565b806301ffc9a7146101c757806306fdde0314610204578063081812fc1461022f575b600080fd5b3480156101d357600080fd5b506101ee60048036038101906101e99190612ef1565b61075b565b6040516101fb9190613a42565b60405180910390f35b34801561021057600080fd5b5061021961076d565b6040516102269190613a5d565b60405180910390f35b34801561023b57600080fd5b5061025660048036038101906102519190612f84565b6107ff565b6040516102639190613982565b60405180910390f35b34801561027857600080fd5b50610293600480360381019061028e9190612eb5565b610884565b005b3480156102a157600080fd5b506102aa61099c565b6040516102b79190613d5f565b60405180910390f35b3480156102cc57600080fd5b506102e760048036038101906102e29190612daf565b6109a9565b005b3480156102f557600080fd5b50610310600480360381019061030b9190612eb5565b610a09565b60405161031d9190613d5f565b60405180910390f35b34801561033257600080fd5b5061034d60048036038101906103489190612daf565b610aae565b005b34801561035b57600080fd5b5061037660048036038101906103719190612f84565b610ace565b6040516103839190613d5f565b60405180910390f35b34801561039857600080fd5b506103b360048036038101906103ae9190612f84565b610b65565b6040516103c09190613982565b60405180910390f35b3480156103d557600080fd5b506103de610c17565b6040516103eb9190613a20565b60405180910390f35b34801561040057600080fd5b5061041b60048036038101906104169190612d4a565b610d0d565b6040516104289190613d5f565b60405180910390f35b34801561043d57600080fd5b50610446610dc5565b005b34801561045457600080fd5b5061046f600480360381019061046a9190612d4a565b610e4d565b60405161047c9190613a20565b60405180910390f35b34801561049157600080fd5b5061049a610f47565b6040516104a79190613982565b60405180910390f35b3480156104bc57600080fd5b506104c5610f71565b6040516104d29190613a5d565b60405180910390f35b3480156104e757600080fd5b5061050260048036038101906104fd9190612eb5565b611003565b005b34801561051057600080fd5b5061052b60048036038101906105269190612e79565b61108d565b005b34801561053957600080fd5b50610554600480360381019061054f9190612f84565b6110a3565b6040516105619190613a42565b60405180910390f35b34801561057657600080fd5b50610591600480360381019061058c9190612dfe565b6110c2565b005b34801561059f57600080fd5b506105ba60048036038101906105b59190612f84565b611124565b6040516105c79190613d5f565b60405180910390f35b3480156105dc57600080fd5b506105f760048036038101906105f29190612fad565b611141565b005b34801561060557600080fd5b50610620600480360381019061061b9190612f84565b61121d565b60405161062d9190613a5d565b60405180910390f35b34801561064257600080fd5b5061065d60048036038101906106589190612f84565b61122f565b005b34801561066b57600080fd5b5061068660048036038101906106819190612f43565b6112c8565b6040516106939190613d5f565b60405180910390f35b6106b660048036038101906106b19190612f84565b611306565b005b3480156106c457600080fd5b506106df60048036038101906106da9190612d73565b611427565b6040516106ec9190613a42565b60405180910390f35b34801561070157600080fd5b5061071c60048036038101906107179190612d4a565b6114bb565b005b34801561072a57600080fd5b5061074560048036038101906107409190612f84565b6115b3565b6040516107529190613d5f565b60405180910390f35b6000610766826115cb565b9050919050565b60606000805461077c90613ff8565b80601f01602080910402602001604051908101604052809291908181526020018280546107a890613ff8565b80156107f55780601f106107ca576101008083540402835291602001916107f5565b820191906000526020600020905b8154815290600101906020018083116107d857829003601f168201915b5050505050905090565b600061080a82611645565b610849576040517f08c379a000000000000000000000000000000000000000000000000000000000815260040161084090613c3f565b60405180910390fd5b6004600083815260200190815260200160002060009054906101000a900473ffffffffffffffffffffffffffffffffffffffff169050919050565b600061088f82610b65565b90508073ffffffffffffffffffffffffffffffffffffffff168373ffffffffffffffffffffffffffffffffffffffff161415610900576040517f08c379a00000000000000000000000000000000000000000000000000000000081526004016108f790613cdf565b60405180910390fd5b8073ffffffffffffffffffffffffffffffffffffffff1661091f6116b1565b73ffffffffffffffffffffffffffffffffffffffff16148061094e575061094d816109486116b1565b611427565b5b61098d576040517f08c379a000000000000000000000000000000000000000000000000000000000815260040161098490613b7f565b60405180910390fd5b61099783836116b9565b505050565b6000600980549050905090565b6109ba6109b46116b1565b82611772565b6109f9576040517f08c379a00000000000000000000000000000000000000000000000000000000081526004016109f090613d1f565b60405180910390fd5b610a04838383611850565b505050565b6000610a1483610d0d565b8210610a55576040517f08c379a0000000000000000000000000000000000000000000000000000000008152600401610a4c90613a7f565b60405180910390fd5b600760008473ffffffffffffffffffffffffffffffffffffffff1673ffffffffffffffffffffffffffffffffffffffff168152602001908152602001600020600083815260200190815260200160002054905092915050565b610ac9838383604051806020016040528060008152506110c2565b505050565b6000610ad861099c565b8210610b19576040517f08c379a0000000000000000000000000000000000000000000000000000000008152600401610b1090613d3f565b60405180910390fd5b60098281548110610b53577f4e487b7100000000000000000000000000000000000000000000000000000000600052603260045260246000fd5b90600052602060002001549050919050565b6000806002600084815260200190815260200160002060009054906101000a900473ffffffffffffffffffffffffffffffffffffffff169050600073ffffffffffffffffffffffffffffffffffffffff168173ffffffffffffffffffffffffffffffffffffffff161415610c0e576040517f08c379a0000000000000000000000000000000000000000000000000000000008152600401610c0590613bbf565b60405180910390fd5b80915050919050565b6060600080610c2461099c565b67ffffffffffffffff811115610c63577f4e487b7100000000000000000000000000000000000000000000000000000000600052604160045260246000fd5b604051908082528060200260200182016040528015610c915781602001602082028036833780820191505090505b50905060005b8151811015610d0457610ca981610ace565b925082828281518110610ce5577f4e487b7100000000000000000000000000000000000000000000000000000000600052603260045260246000fd5b6020026020010181815250508080610cfc9061402a565b915050610c97565b50809250505090565b60008073ffffffffffffffffffffffffffffffffffffffff168273ffffffffffffffffffffffffffffffffffffffff161415610d7e576040517f08c379a0000000000000000000000000000000000000000000000000000000008152600401610d7590613b9f565b60405180910390fd5b600360008373ffffffffffffffffffffffffffffffffffffffff1673ffffffffffffffffffffffffffffffffffffffff168152602001908152602001600020549050919050565b610dcd6116b1565b73ffffffffffffffffffffffffffffffffffffffff16610deb610f47565b73ffffffffffffffffffffffffffffffffffffffff1614610e41576040517f08c379a0000000000000000000000000000000000000000000000000000000008152600401610e3890613c5f565b60405180910390fd5b610e4b6000611aac565b565b6060600080610e5b84610d0d565b67ffffffffffffffff811115610e9a577f4e487b7100000000000000000000000000000000000000000000000000000000600052604160045260246000fd5b604051908082528060200260200182016040528015610ec85781602001602082028036833780820191505090505b50905060005b8151811015610f3c57610ee18582610a09565b925082828281518110610f1d577f4e487b7100000000000000000000000000000000000000000000000000000000600052603260045260246000fd5b6020026020010181815250508080610f349061402a565b915050610ece565b508092505050919050565b6000600b60009054906101000a900473ffffffffffffffffffffffffffffffffffffffff16905090565b606060018054610f8090613ff8565b80601f0160208091040260200160405190810160405280929190818152602001828054610fac90613ff8565b8015610ff95780601f10610fce57610100808354040283529160200191610ff9565b820191906000526020600020905b815481529060010190602001808311610fdc57829003601f168201915b5050505050905090565b61100b6116b1565b73ffffffffffffffffffffffffffffffffffffffff16611029610f47565b73ffffffffffffffffffffffffffffffffffffffff161461107f576040517f08c379a000000000000000000000000000000000000000000000000000000000815260040161107690613c5f565b60405180910390fd5b6110898282611b72565b5050565b61109f6110986116b1565b8383611b90565b5050565b600080600d600084815260200190815260200160002054119050919050565b6110d36110cd6116b1565b83611772565b611112576040517f08c379a000000000000000000000000000000000000000000000000000000000815260040161110990613d1f565b60405180910390fd5b61111e84848484611cfd565b50505050565b6000600d6000838152602001908152602001600020549050919050565b61114a82610b65565b73ffffffffffffffffffffffffffffffffffffffff166111686116b1565b73ffffffffffffffffffffffffffffffffffffffff16146111be576040517f08c379a00000000000000000000000000000000000000000000000000000000081526004016111b590613cff565b60405180910390fd5b60008111611201576040517f08c379a00000000000000000000000000000000000000000000000000000000081526004016111f890613c9f565b60405180910390fd5b80600d6000848152602001908152602001600020819055505050565b606061122882611d59565b9050919050565b61123881610b65565b73ffffffffffffffffffffffffffffffffffffffff166112566116b1565b73ffffffffffffffffffffffffffffffffffffffff16146112ac576040517f08c379a00000000000000000000000000000000000000000000000000000000081526004016112a390613cff565b60405180910390fd5b6000600d60008381526020019081526020016000208190555050565b60006112d4600c611eab565b60006112e0600c611ec1565b90506112f36112ed6116b1565b82611ecf565b6112fd818461209d565b80915050919050565b6000600d600083815260200190815260200160002054905060008111611361576040517f08c379a000000000000000000000000000000000000000000000000000000000815260040161135890613abf565b60405180910390fd5b600061136c83610b65565b90506113808161137a6116b1565b85611850565b6000600d6000858152602001908152602001600020819055508073ffffffffffffffffffffffffffffffffffffffff166108fc349081150290604051600060405180830381858888f193505050501580156113df573d6000803e3d6000fd5b507f608f6ac9327c2bf4d3c77adf447d2c448ba7b0971e0aaa9aa03f7ac29d874a448161140a6116b1565b8460405161141a9392919061399d565b60405180910390a1505050565b6000600560008473ffffffffffffffffffffffffffffffffffffffff1673ffffffffffffffffffffffffffffffffffffffff16815260200190815260200160002060008373ffffffffffffffffffffffffffffffffffffffff1673ffffffffffffffffffffffffffffffffffffffff16815260200190815260200160002060009054906101000a900460ff16905092915050565b6114c36116b1565b73ffffffffffffffffffffffffffffffffffffffff166114e1610f47565b73ffffffffffffffffffffffffffffffffffffffff1614611537576040517f08c379a000000000000000000000000000000000000000000000000000000000815260040161152e90613c5f565b60405180910390fd5b600073ffffffffffffffffffffffffffffffffffffffff168173ffffffffffffffffffffffffffffffffffffffff1614156115a7576040517f08c379a000000000000000000000000000000000000000000000000000000000815260040161159e90613adf565b60405180910390fd5b6115b081611aac565b50565b600d6020528060005260406000206000915090505481565b60007f780e9d63000000000000000000000000000000000000000000000000000000007bffffffffffffffffffffffffffffffffffffffffffffffffffffffff1916827bffffffffffffffffffffffffffffffffffffffffffffffffffffffff1916148061163e575061163d82612111565b5b9050919050565b60008073ffffffffffffffffffffffffffffffffffffffff166002600084815260200190815260200160002060009054906101000a900473ffffffffffffffffffffffffffffffffffffffff1673ffffffffffffffffffffffffffffffffffffffff1614159050919050565b600033905090565b816004600083815260200190815260200160002060006101000a81548173ffffffffffffffffffffffffffffffffffffffff021916908373ffffffffffffffffffffffffffffffffffffffff160217905550808273ffffffffffffffffffffffffffffffffffffffff1661172c83610b65565b73ffffffffffffffffffffffffffffffffffffffff167f8c5be1e5ebec7d5bd14f71427d1e84f3dd0314c0f7b2291e5b200ac8c7c3b92560405160405180910390a45050565b600061177d82611645565b6117bc576040517f08c379a00000000000000000000000000000000000000000000000000000000081526004016117b390613b5f565b60405180910390fd5b60006117c783610b65565b90508073ffffffffffffffffffffffffffffffffffffffff168473ffffffffffffffffffffffffffffffffffffffff16148061183657508373ffffffffffffffffffffffffffffffffffffffff1661181e846107ff565b73ffffffffffffffffffffffffffffffffffffffff16145b8061184757506118468185611427565b5b91505092915050565b8273ffffffffffffffffffffffffffffffffffffffff1661187082610b65565b73ffffffffffffffffffffffffffffffffffffffff16146118c6576040517f08c379a00000000000000000000000000000000000000000000000000000000081526004016118bd90613c7f565b60405180910390fd5b600073ffffffffffffffffffffffffffffffffffffffff168273ffffffffffffffffffffffffffffffffffffffff161415611936576040517f08c379a000000000000000000000000000000000000000000000000000000000815260040161192d90613b1f565b60405180910390fd5b6119418383836121f3565b61194c6000826116b9565b6001600360008573ffffffffffffffffffffffffffffffffffffffff1673ffffffffffffffffffffffffffffffffffffffff168152602001908152602001600020600082825461199c9190613f0e565b925050819055506001600360008473ffffffffffffffffffffffffffffffffffffffff1673ffffffffffffffffffffffffffffffffffffffff16815260200190815260200160002060008282546119f39190613e87565b92505081905550816002600083815260200190815260200160002060006101000a81548173ffffffffffffffffffffffffffffffffffffffff021916908373ffffffffffffffffffffffffffffffffffffffff160217905550808273ffffffffffffffffffffffffffffffffffffffff168473ffffffffffffffffffffffffffffffffffffffff167fddf252ad1be2c89b69c2b068fc378daa952ba7f163c4a11628f55a4df523b3ef60405160405180910390a4505050565b6000600b60009054906101000a900473ffffffffffffffffffffffffffffffffffffffff16905081600b60006101000a81548173ffffffffffffffffffffffffffffffffffffffff021916908373ffffffffffffffffffffffffffffffffffffffff1602179055508173ffffffffffffffffffffffffffffffffffffffff168173ffffffffffffffffffffffffffffffffffffffff167f8be0079c531659141344cd1fd0a4f28419497f9722a3daafe3b4186f6b6457e060405160405180910390a35050565b611b8c828260405180602001604052806000815250612203565b5050565b8173ffffffffffffffffffffffffffffffffffffffff168373ffffffffffffffffffffffffffffffffffffffff161415611bff576040517f08c379a0000000000000000000000000000000000000000000000000000000008152600401611bf690613b3f565b60405180910390fd5b80600560008573ffffffffffffffffffffffffffffffffffffffff1673ffffffffffffffffffffffffffffffffffffffff16815260200190815260200160002060008473ffffffffffffffffffffffffffffffffffffffff1673ffffffffffffffffffffffffffffffffffffffff16815260200190815260200160002060006101000a81548160ff0219169083151502179055508173ffffffffffffffffffffffffffffffffffffffff168373ffffffffffffffffffffffffffffffffffffffff167f17307eab39ab6107e8899845ad3d59bd9653f200f220920489ca2b5937696c3183604051611cf09190613a42565b60405180910390a3505050565b611d08848484611850565b611d148484848461225e565b611d53576040517f08c379a0000000000000000000000000000000000000000000000000000000008152600401611d4a90613a9f565b60405180910390fd5b50505050565b6060611d6482611645565b611da3576040517f08c379a0000000000000000000000000000000000000000000000000000000008152600401611d9a90613c1f565b60405180910390fd5b6000600660008481526020019081526020016000208054611dc390613ff8565b80601f0160208091040260200160405190810160405280929190818152602001828054611def90613ff8565b8015611e3c5780601f10611e1157610100808354040283529160200191611e3c565b820191906000526020600020905b815481529060010190602001808311611e1f57829003601f168201915b505050505090506000611e4d6123f5565b9050600081511415611e63578192505050611ea6565b600082511115611e98578082604051602001611e8092919061395e565b60405160208183030381529060405292505050611ea6565b611ea18461240c565b925050505b919050565b6001816000016000828254019250508190555050565b600081600001549050919050565b600073ffffffffffffffffffffffffffffffffffffffff168273ffffffffffffffffffffffffffffffffffffffff161415611f3f576040517f08c379a0000000000000000000000000000000000000000000000000000000008152600401611f3690613bff565b60405180910390fd5b611f4881611645565b15611f88576040517f08c379a0000000000000000000000000000000000000000000000000000000008152600401611f7f90613aff565b60405180910390fd5b611f94600083836121f3565b6001600360008473ffffffffffffffffffffffffffffffffffffffff1673ffffffffffffffffffffffffffffffffffffffff1681526020019081526020016000206000828254611fe49190613e87565b92505081905550816002600083815260200190815260200160002060006101000a81548173ffffffffffffffffffffffffffffffffffffffff021916908373ffffffffffffffffffffffffffffffffffffffff160217905550808273ffffffffffffffffffffffffffffffffffffffff16600073ffffffffffffffffffffffffffffffffffffffff167fddf252ad1be2c89b69c2b068fc378daa952ba7f163c4a11628f55a4df523b3ef60405160405180910390a45050565b6120a682611645565b6120e5576040517f08c379a00000000000000000000000000000000000000000000000000000000081526004016120dc90613bdf565b60405180910390fd5b8060066000848152602001908152602001600020908051906020019061210c929190612b6e565b505050565b60007f80ac58cd000000000000000000000000000000000000000000000000000000007bffffffffffffffffffffffffffffffffffffffffffffffffffffffff1916827bffffffffffffffffffffffffffffffffffffffffffffffffffffffff191614806121dc57507f5b5e139f000000000000000000000000000000000000000000000000000000007bffffffffffffffffffffffffffffffffffffffffffffffffffffffff1916827bffffffffffffffffffffffffffffffffffffffffffffffffffffffff1916145b806121ec57506121eb826124b3565b5b9050919050565b6121fe83838361251d565b505050565b61220d8383611ecf565b61221a600084848461225e565b612259576040517f08c379a000000000000000000000000000000000000000000000000000000000815260040161225090613a9f565b60405180910390fd5b505050565b600061227f8473ffffffffffffffffffffffffffffffffffffffff16612631565b156123e8578373ffffffffffffffffffffffffffffffffffffffff1663150b7a026122a86116b1565b8786866040518563ffffffff1660e01b81526004016122ca94939291906139d4565b602060405180830381600087803b1580156122e457600080fd5b505af192505050801561231557506040513d601f19601f820116820180604052508101906123129190612f1a565b60015b612398573d8060008114612345576040519150601f19603f3d011682016040523d82523d6000602084013e61234a565b606091505b50600081511415612390576040517f08c379a000000000000000000000000000000000000000000000000000000000815260040161238790613a9f565b60405180910390fd5b805181602001fd5b63150b7a0260e01b7bffffffffffffffffffffffffffffffffffffffffffffffffffffffff1916817bffffffffffffffffffffffffffffffffffffffffffffffffffffffff1916149150506123ed565b600190505b949350505050565b606060405180602001604052806000815250905090565b606061241782611645565b612456576040517f08c379a000000000000000000000000000000000000000000000000000000000815260040161244d90613cbf565b60405180910390fd5b60006124606123f5565b9050600081511161248057604051806020016040528060008152506124ab565b8061248a84612644565b60405160200161249b92919061395e565b6040516020818303038152906040525b915050919050565b60007f01ffc9a7000000000000000000000000000000000000000000000000000000007bffffffffffffffffffffffffffffffffffffffffffffffffffffffff1916827bffffffffffffffffffffffffffffffffffffffffffffffffffffffff1916149050919050565b6125288383836127f1565b600073ffffffffffffffffffffffffffffffffffffffff168373ffffffffffffffffffffffffffffffffffffffff16141561256b57612566816127f6565b6125aa565b8173ffffffffffffffffffffffffffffffffffffffff168373ffffffffffffffffffffffffffffffffffffffff16146125a9576125a8838261283f565b5b5b600073ffffffffffffffffffffffffffffffffffffffff168273ffffffffffffffffffffffffffffffffffffffff1614156125ed576125e8816129ac565b61262c565b8273ffffffffffffffffffffffffffffffffffffffff168273ffffffffffffffffffffffffffffffffffffffff161461262b5761262a8282612aef565b5b5b505050565b600080823b905060008111915050919050565b6060600082141561268c576040518060400160405280600181526020017f300000000000000000000000000000000000000000000000000000000000000081525090506127ec565b600082905060005b600082146126be5780806126a79061402a565b915050600a826126b79190613edd565b9150612694565b60008167ffffffffffffffff811115612700577f4e487b7100000000000000000000000000000000000000000000000000000000600052604160045260246000fd5b6040519080825280601f01601f1916602001820160405280156127325781602001600182028036833780820191505090505b5090505b600085146127e55760018261274b9190613f0e565b9150600a8561275a9190614073565b60306127669190613e87565b60f81b8183815181106127a2577f4e487b7100000000000000000000000000000000000000000000000000000000600052603260045260246000fd5b60200101907effffffffffffffffffffffffffffffffffffffffffffffffffffffffffffff1916908160001a905350600a856127de9190613edd565b9450612736565b8093505050505b919050565b505050565b600980549050600a600083815260200190815260200160002081905550600981908060018154018082558091505060019003906000526020600020016000909190919091505550565b6000600161284c84610d0d565b6128569190613f0e565b905060006008600084815260200190815260200160002054905081811461293b576000600760008673ffffffffffffffffffffffffffffffffffffffff1673ffffffffffffffffffffffffffffffffffffffff168152602001908152602001600020600084815260200190815260200160002054905080600760008773ffffffffffffffffffffffffffffffffffffffff1673ffffffffffffffffffffffffffffffffffffffff168152602001908152602001600020600084815260200190815260200160002081905550816008600083815260200190815260200160002081905550505b6008600084815260200190815260200160002060009055600760008573ffffffffffffffffffffffffffffffffffffffff1673ffffffffffffffffffffffffffffffffffffffff16815260200190815260200160002060008381526020019081526020016000206000905550505050565b600060016009805490506129c09190613f0e565b90506000600a6000848152602001908152602001600020549050600060098381548110612a16577f4e487b7100000000000000000000000000000000000000000000000000000000600052603260045260246000fd5b906000526020600020015490508060098381548110612a5e577f4e487b7100000000000000000000000000000000000000000000000000000000600052603260045260246000fd5b906000526020600020018190555081600a600083815260200190815260200160002081905550600a6000858152602001908152602001600020600090556009805480612ad3577f4e487b7100000000000000000000000000000000000000000000000000000000600052603160045260246000fd5b6001900381819060005260206000200160009055905550505050565b6000612afa83610d0d565b905081600760008573ffffffffffffffffffffffffffffffffffffffff1673ffffffffffffffffffffffffffffffffffffffff168152602001908152602001600020600083815260200190815260200160002081905550806008600084815260200190815260200160002081905550505050565b828054612b7a90613ff8565b90600052602060002090601f016020900481019282612b9c5760008555612be3565b82601f10612bb557805160ff1916838001178555612be3565b82800160010185558215612be3579182015b82811115612be2578251825591602001919060010190612bc7565b5b509050612bf09190612bf4565b5090565b5b80821115612c0d576000816000905550600101612bf5565b5090565b6000612c24612c1f84613dab565b613d7a565b905082815260208101848484011115612c3c57600080fd5b612c47848285613fb6565b509392505050565b6000612c62612c5d84613ddb565b613d7a565b905082815260208101848484011115612c7a57600080fd5b612c85848285613fb6565b509392505050565b600081359050612c9c81614171565b92915050565b600081359050612cb181614188565b92915050565b600081359050612cc68161419f565b92915050565b600081519050612cdb8161419f565b92915050565b600082601f830112612cf257600080fd5b8135612d02848260208601612c11565b91505092915050565b600082601f830112612d1c57600080fd5b8135612d2c848260208601612c4f565b91505092915050565b600081359050612d44816141b6565b92915050565b600060208284031215612d5c57600080fd5b6000612d6a84828501612c8d565b91505092915050565b60008060408385031215612d8657600080fd5b6000612d9485828601612c8d565b9250506020612da585828601612c8d565b9150509250929050565b600080600060608486031215612dc457600080fd5b6000612dd286828701612c8d565b9350506020612de386828701612c8d565b9250506040612df486828701612d35565b9150509250925092565b60008060008060808587031215612e1457600080fd5b6000612e2287828801612c8d565b9450506020612e3387828801612c8d565b9350506040612e4487828801612d35565b925050606085013567ffffffffffffffff811115612e6157600080fd5b612e6d87828801612ce1565b91505092959194509250565b60008060408385031215612e8c57600080fd5b6000612e9a85828601612c8d565b9250506020612eab85828601612ca2565b9150509250929050565b60008060408385031215612ec857600080fd5b6000612ed685828601612c8d565b9250506020612ee785828601612d35565b9150509250929050565b600060208284031215612f0357600080fd5b6000612f1184828501612cb7565b91505092915050565b600060208284031215612f2c57600080fd5b6000612f3a84828501612ccc565b91505092915050565b600060208284031215612f5557600080fd5b600082013567ffffffffffffffff811115612f6f57600080fd5b612f7b84828501612d0b565b91505092915050565b600060208284031215612f9657600080fd5b6000612fa484828501612d35565b91505092915050565b60008060408385031215612fc057600080fd5b6000612fce85828601612d35565b9250506020612fdf85828601612d35565b9150509250929050565b6000612ff58383613940565b60208301905092915050565b61300a81613f42565b82525050565b600061301b82613e1b565b6130258185613e49565b935061303083613e0b565b8060005b838110156130615781516130488882612fe9565b975061305383613e3c565b925050600181019050613034565b5085935050505092915050565b61307781613f54565b82525050565b600061308882613e26565b6130928185613e5a565b93506130a2818560208601613fc5565b6130ab81614160565b840191505092915050565b60006130c182613e31565b6130cb8185613e6b565b93506130db818560208601613fc5565b6130e481614160565b840191505092915050565b60006130fa82613e31565b6131048185613e7c565b9350613114818560208601613fc5565b80840191505092915050565b600061312d602b83613e6b565b91507f455243373231456e756d657261626c653a206f776e657220696e646578206f7560008301527f74206f6620626f756e64730000000000000000000000000000000000000000006020830152604082019050919050565b6000613193603283613e6b565b91507f4552433732313a207472616e7366657220746f206e6f6e20455243373231526560008301527f63656976657220696d706c656d656e74657200000000000000000000000000006020830152604082019050919050565b60006131f9601a83613e6b565b91507f5468697320746f6b656e206973206e6f7420666f722073616c650000000000006000830152602082019050919050565b6000613239602683613e6b565b91507f4f776e61626c653a206e6577206f776e657220697320746865207a65726f206160008301527f64647265737300000000000000000000000000000000000000000000000000006020830152604082019050919050565b600061329f601c83613e6b565b91507f4552433732313a20746f6b656e20616c7265616479206d696e746564000000006000830152602082019050919050565b60006132df602483613e6b565b91507f4552433732313a207472616e7366657220746f20746865207a65726f2061646460008301527f72657373000000000000000000000000000000000000000000000000000000006020830152604082019050919050565b6000613345601983613e6b565b91507f4552433732313a20617070726f766520746f2063616c6c6572000000000000006000830152602082019050919050565b6000613385602c83613e6b565b91507f4552433732313a206f70657261746f7220717565727920666f72206e6f6e657860008301527f697374656e7420746f6b656e00000000000000000000000000000000000000006020830152604082019050919050565b60006133eb603883613e6b565b91507f4552433732313a20617070726f76652063616c6c6572206973206e6f74206f7760008301527f6e6572206e6f7220617070726f76656420666f7220616c6c00000000000000006020830152604082019050919050565b6000613451602a83613e6b565b91507f4552433732313a2062616c616e636520717565727920666f7220746865207a6560008301527f726f2061646472657373000000000000000000000000000000000000000000006020830152604082019050919050565b60006134b7602983613e6b565b91507f4552433732313a206f776e657220717565727920666f72206e6f6e657869737460008301527f656e7420746f6b656e00000000000000000000000000000000000000000000006020830152604082019050919050565b600061351d602e83613e6b565b91507f45524337323155524953746f726167653a2055524920736574206f66206e6f6e60008301527f6578697374656e7420746f6b656e0000000000000000000000000000000000006020830152604082019050919050565b6000613583602083613e6b565b91507f4552433732313a206d696e7420746f20746865207a65726f20616464726573736000830152602082019050919050565b60006135c3603183613e6b565b91507f45524337323155524953746f726167653a2055524920717565727920666f722060008301527f6e6f6e6578697374656e7420746f6b656e0000000000000000000000000000006020830152604082019050919050565b6000613629602c83613e6b565b91507f4552433732313a20617070726f76656420717565727920666f72206e6f6e657860008301527f697374656e7420746f6b656e00000000000000000000000000000000000000006020830152604082019050919050565b600061368f602083613e6b565b91507f4f776e61626c653a2063616c6c6572206973206e6f7420746865206f776e65726000830152602082019050919050565b60006136cf602983613e6b565b91507f4552433732313a207472616e73666572206f6620746f6b656e2074686174206960008301527f73206e6f74206f776e00000000000000000000000000000000000000000000006020830152604082019050919050565b6000613735600a83613e6b565b91507f5072696365207a65726f000000000000000000000000000000000000000000006000830152602082019050919050565b6000613775602f83613e6b565b91507f4552433732314d657461646174613a2055524920717565727920666f72206e6f60008301527f6e6578697374656e7420746f6b656e00000000000000000000000000000000006020830152604082019050919050565b60006137db602183613e6b565b91507f4552433732313a20617070726f76616c20746f2063757272656e74206f776e6560008301527f72000000000000000000000000000000000000000000000000000000000000006020830152604082019050919050565b6000613841601783613e6b565b91507f4e6f74206f776e6572206f66207468697320746f6b656e0000000000000000006000830152602082019050919050565b6000613881603183613e6b565b91507f4552433732313a207472616e736665722063616c6c6572206973206e6f74206f60008301527f776e6572206e6f7220617070726f7665640000000000000000000000000000006020830152604082019050919050565b60006138e7602c83613e6b565b91507f455243373231456e756d657261626c653a20676c6f62616c20696e646578206f60008301527f7574206f6620626f756e647300000000000000000000000000000000000000006020830152604082019050919050565b61394981613fac565b82525050565b61395881613fac565b82525050565b600061396a82856130ef565b915061397682846130ef565b91508190509392505050565b60006020820190506139976000830184613001565b92915050565b60006060820190506139b26000830186613001565b6139bf6020830185613001565b6139cc604083018461394f565b949350505050565b60006080820190506139e96000830187613001565b6139f66020830186613001565b613a03604083018561394f565b8181036060830152613a15818461307d565b905095945050505050565b60006020820190508181036000830152613a3a8184613010565b905092915050565b6000602082019050613a57600083018461306e565b92915050565b60006020820190508181036000830152613a7781846130b6565b905092915050565b60006020820190508181036000830152613a9881613120565b9050919050565b60006020820190508181036000830152613ab881613186565b9050919050565b60006020820190508181036000830152613ad8816131ec565b9050919050565b60006020820190508181036000830152613af88161322c565b9050919050565b60006020820190508181036000830152613b1881613292565b9050919050565b60006020820190508181036000830152613b38816132d2565b9050919050565b60006020820190508181036000830152613b5881613338565b9050919050565b60006020820190508181036000830152613b7881613378565b9050919050565b60006020820190508181036000830152613b98816133de565b9050919050565b60006020820190508181036000830152613bb881613444565b9050919050565b60006020820190508181036000830152613bd8816134aa565b9050919050565b60006020820190508181036000830152613bf881613510565b9050919050565b60006020820190508181036000830152613c1881613576565b9050919050565b60006020820190508181036000830152613c38816135b6565b9050919050565b60006020820190508181036000830152613c588161361c565b9050919050565b60006020820190508181036000830152613c7881613682565b9050919050565b60006020820190508181036000830152613c98816136c2565b9050919050565b60006020820190508181036000830152613cb881613728565b9050919050565b60006020820190508181036000830152613cd881613768565b9050919050565b60006020820190508181036000830152613cf8816137ce565b9050919050565b60006020820190508181036000830152613d1881613834565b9050919050565b60006020820190508181036000830152613d3881613874565b9050919050565b60006020820190508181036000830152613d58816138da565b9050919050565b6000602082019050613d74600083018461394f565b92915050565b6000604051905081810181811067ffffffffffffffff82111715613da157613da0614131565b5b8060405250919050565b600067ffffffffffffffff821115613dc657613dc5614131565b5b601f19601f8301169050602081019050919050565b600067ffffffffffffffff821115613df657613df5614131565b5b601f19601f8301169050602081019050919050565b6000819050602082019050919050565b600081519050919050565b600081519050919050565b600081519050919050565b6000602082019050919050565b600082825260208201905092915050565b600082825260208201905092915050565b600082825260208201905092915050565b600081905092915050565b6000613e9282613fac565b9150613e9d83613fac565b9250827fffffffffffffffffffffffffffffffffffffffffffffffffffffffffffffffff03821115613ed257613ed16140a4565b5b828201905092915050565b6000613ee882613fac565b9150613ef383613fac565b925082613f0357613f026140d3565b5b828204905092915050565b6000613f1982613fac565b9150613f2483613fac565b925082821015613f3757613f366140a4565b5b828203905092915050565b6000613f4d82613f8c565b9050919050565b60008115159050919050565b60007fffffffff0000000000000000000000000000000000000000000000000000000082169050919050565b600073ffffffffffffffffffffffffffffffffffffffff82169050919050565b6000819050919050565b82818337600083830152505050565b60005b83811015613fe3578082015181840152602081019050613fc8565b83811115613ff2576000848401525b50505050565b6000600282049050600182168061401057607f821691505b6020821081141561402457614023614102565b5b50919050565b600061403582613fac565b91507fffffffffffffffffffffffffffffffffffffffffffffffffffffffffffffffff821415614068576140676140a4565b5b600182019050919050565b600061407e82613fac565b915061408983613fac565b925082614099576140986140d3565b5b828206905092915050565b7f4e487b7100000000000000000000000000000000000000000000000000000000600052601160045260246000fd5b7f4e487b7100000000000000000000000000000000000000000000000000000000600052601260045260246000fd5b7f4e487b7100000000000000000000000000000000000000000000000000000000600052602260045260246000fd5b7f4e487b7100000000000000000000000000000000000000000000000000000000600052604160045260246000fd5b6000601f19601f8301169050919050565b61417a81613f42565b811461418557600080fd5b50565b61419181613f54565b811461419c57600080fd5b50565b6141a881613f60565b81146141b357600080fd5b50565b6141bf81613fac565b81146141ca57600080fd5b5056fea26469706673582212203cc80f611856a5c7d0d87bd28b958507aace5c135997a9d91e330563f7b4604664736f6c63430008000033",
  "immutableReferences": {},
  "source": "// SPDX-License-Identifier: MIT\npragma solidity ^0.8.0;\n\nimport \"@openzeppelin/contracts/token/ERC721/extensions/ERC721URIStorage.sol\";\nimport \"@openzeppelin/contracts/token/ERC721/extensions/ERC721Enumerable.sol\";\nimport \"@openzeppelin/contracts/utils/Counters.sol\";\nimport \"@openzeppelin/contracts/access/Ownable.sol\";\n\ncontract Estate is ERC721URIStorage, ERC721Enumerable, Ownable {\n    using Counters for Counters.Counter;\n    Counters.Counter private _tokenIds;\n\n    constructor() ERC721(\"GameItem\", \"ITM\") {}\n\n    function mint(string memory _tokenURI) public returns (uint256) {\n        _tokenIds.increment();\n\n        uint256 newItemId = _tokenIds.current();\n        _mint(_msgSender(), newItemId);\n        _setTokenURI(newItemId, _tokenURI);\n\n        return newItemId;\n    }\n\n    function _beforeTokenTransfer(\n        address from,\n        address to,\n        uint256 tokenId\n    ) internal override(ERC721, ERC721Enumerable) {\n        super._beforeTokenTransfer(from, to, tokenId);\n    }\n\n    function _burn(uint256 tokenId)\n        internal\n        override(ERC721, ERC721URIStorage)\n    {\n        super._burn(tokenId);\n    }\n\n    function tokenURI(uint256 tokenId)\n        public\n        view\n        override(ERC721, ERC721URIStorage)\n        returns (string memory)\n    {\n        return super.tokenURI(tokenId);\n    }\n\n    function supportsInterface(bytes4 interfaceId)\n        public\n        view\n        override(ERC721, ERC721Enumerable)\n        returns (bool)\n    {\n        return super.supportsInterface(interfaceId);\n    }\n\n    function safeMint(address to, uint256 tokenId) public onlyOwner {\n        _safeMint(to, tokenId);\n    }\n\n    function tokensOfOwner(address owner)\n        public\n        view\n        returns (uint256[] memory)\n    {\n        uint256 tokenId;\n        uint256[] memory listToken = new uint256[](balanceOf(owner));\n        for (uint256 index = 0; index < listToken.length; index++) {\n            tokenId = tokenOfOwnerByIndex(owner, index);\n            listToken[index] = tokenId;\n        }\n        return listToken;\n    }\n\n    function allTokens() public view returns (uint256[] memory) {\n        uint256 tokenId;\n        uint256[] memory listToken = new uint256[](totalSupply());\n        for (uint256 index = 0; index < listToken.length; index++) {\n            tokenId = tokenByIndex(index);\n            listToken[index] = tokenId;\n        }\n        return listToken;\n    }\n\n    event NftBought(address _seller, address _buyer, uint256 _price);\n\n    mapping(uint256 => uint256) public tokenIdToPrice;\n\n    function allowBuy(uint256 _tokenId, uint256 _price) external {\n        require(_msgSender() == ownerOf(_tokenId), \"Not owner of this token\");\n        require(_price > 0, \"Price zero\");\n        tokenIdToPrice[_tokenId] = _price;\n    }\n\n    function disallowBuy(uint256 _tokenId) external {\n        require(_msgSender() == ownerOf(_tokenId), \"Not owner of this token\");\n        tokenIdToPrice[_tokenId] = 0;\n    }\n\n    function isBuy(uint256 _tokenId) external view returns (bool) {\n        return tokenIdToPrice[_tokenId] > 0;\n    }\n\n    function priceOf(uint256 _tokenId) external view returns (uint256) {\n        return tokenIdToPrice[_tokenId];\n    }\n\n    function buy(uint256 _tokenId) external payable {\n        uint256 price = tokenIdToPrice[_tokenId];\n        require(price > 0, \"This token is not for sale\");\n        // require(msg.value == price, \"Incorrect value\");\n\n        address seller = ownerOf(_tokenId);\n        _transfer(seller, _msgSender(), _tokenId);\n        tokenIdToPrice[_tokenId] = 0; // not for sale anymore\n        payable(seller).transfer(msg.value); // send the ETH to the seller\n\n        emit NftBought(seller, _msgSender(), price);\n    }\n}\n",
  "sourcePath": "/Volumes/MAC_SAMSUNG_DATA/STUDY/BLOCKCHAIN/NFT-realestate/contracts/Estate.sol",
  "compiler": {
    "name": "solc",
    "version": "0.8.0+commit.c7dfd78e.Emscripten.clang"
  },
  "schemaVersion": "3.4.4",
  "updatedAt": "2022-01-23T17:59:25.342Z",
  "networkType": "ethereum",
  "devdoc": {
    "kind": "dev",
    "methods": {
      "approve(address,uint256)": {
        "details": "See {IERC721-approve}."
      },
      "balanceOf(address)": {
        "details": "See {IERC721-balanceOf}."
      },
      "getApproved(uint256)": {
        "details": "See {IERC721-getApproved}."
      },
      "isApprovedForAll(address,address)": {
        "details": "See {IERC721-isApprovedForAll}."
      },
      "name()": {
        "details": "See {IERC721Metadata-name}."
      },
      "owner()": {
        "details": "Returns the address of the current owner."
      },
      "ownerOf(uint256)": {
        "details": "See {IERC721-ownerOf}."
      },
      "renounceOwnership()": {
        "details": "Leaves the contract without owner. It will not be possible to call `onlyOwner` functions anymore. Can only be called by the current owner. NOTE: Renouncing ownership will leave the contract without an owner, thereby removing any functionality that is only available to the owner."
      },
      "safeTransferFrom(address,address,uint256)": {
        "details": "See {IERC721-safeTransferFrom}."
      },
      "safeTransferFrom(address,address,uint256,bytes)": {
        "details": "See {IERC721-safeTransferFrom}."
      },
      "setApprovalForAll(address,bool)": {
        "details": "See {IERC721-setApprovalForAll}."
      },
      "symbol()": {
        "details": "See {IERC721Metadata-symbol}."
      },
      "tokenByIndex(uint256)": {
        "details": "See {IERC721Enumerable-tokenByIndex}."
      },
      "tokenOfOwnerByIndex(address,uint256)": {
        "details": "See {IERC721Enumerable-tokenOfOwnerByIndex}."
      },
      "totalSupply()": {
        "details": "See {IERC721Enumerable-totalSupply}."
      },
      "transferFrom(address,address,uint256)": {
        "details": "See {IERC721-transferFrom}."
      },
      "transferOwnership(address)": {
        "details": "Transfers ownership of the contract to a new account (`newOwner`). Can only be called by the current owner."
      }
    },
    "version": 1
  },
  "userdoc": {
    "kind": "user",
    "methods": {},
    "version": 1
  }
}