{
  "contractName": "Estate",
  "abi": [
    {
      "inputs": [],
      "stateMutability": "nonpayable",
      "type": "constructor"
    },
    {
      "anonymous": false,
      "inputs": [
        {
          "indexed": true,
          "internalType": "address",
          "name": "owner",
          "type": "address"
        },
        {
          "indexed": true,
          "internalType": "address",
          "name": "approved",
          "type": "address"
        },
        {
          "indexed": true,
          "internalType": "uint256",
          "name": "tokenId",
          "type": "uint256"
        }
      ],
      "name": "Approval",
      "type": "event"
    },
    {
      "anonymous": false,
      "inputs": [
        {
          "indexed": true,
          "internalType": "address",
          "name": "owner",
          "type": "address"
        },
        {
          "indexed": true,
          "internalType": "address",
          "name": "operator",
          "type": "address"
        },
        {
          "indexed": false,
          "internalType": "bool",
          "name": "approved",
          "type": "bool"
        }
      ],
      "name": "ApprovalForAll",
      "type": "event"
    },
    {
      "anonymous": false,
      "inputs": [
        {
          "indexed": false,
          "internalType": "address",
          "name": "_seller",
          "type": "address"
        },
        {
          "indexed": false,
          "internalType": "address",
          "name": "_buyer",
          "type": "address"
        },
        {
          "indexed": false,
          "internalType": "uint256",
          "name": "_price",
          "type": "uint256"
        }
      ],
      "name": "NftBought",
      "type": "event"
    },
    {
      "anonymous": false,
      "inputs": [
        {
          "indexed": true,
          "internalType": "address",
          "name": "previousOwner",
          "type": "address"
        },
        {
          "indexed": true,
          "internalType": "address",
          "name": "newOwner",
          "type": "address"
        }
      ],
      "name": "OwnershipTransferred",
      "type": "event"
    },
    {
      "anonymous": false,
      "inputs": [
        {
          "indexed": true,
          "internalType": "address",
          "name": "from",
          "type": "address"
        },
        {
          "indexed": true,
          "internalType": "address",
          "name": "to",
          "type": "address"
        },
        {
          "indexed": true,
          "internalType": "uint256",
          "name": "tokenId",
          "type": "uint256"
        }
      ],
      "name": "Transfer",
      "type": "event"
    },
    {
      "inputs": [
        {
          "internalType": "address",
          "name": "to",
          "type": "address"
        },
        {
          "internalType": "uint256",
          "name": "tokenId",
          "type": "uint256"
        }
      ],
      "name": "approve",
      "outputs": [],
      "stateMutability": "nonpayable",
      "type": "function"
    },
    {
      "inputs": [
        {
          "internalType": "address",
          "name": "owner",
          "type": "address"
        }
      ],
      "name": "balanceOf",
      "outputs": [
        {
          "internalType": "uint256",
          "name": "",
          "type": "uint256"
        }
      ],
      "stateMutability": "view",
      "type": "function",
      "constant": true
    },
    {
      "inputs": [
        {
          "internalType": "uint256",
          "name": "tokenId",
          "type": "uint256"
        }
      ],
      "name": "getApproved",
      "outputs": [
        {
          "internalType": "address",
          "name": "",
          "type": "address"
        }
      ],
      "stateMutability": "view",
      "type": "function",
      "constant": true
    },
    {
      "inputs": [
        {
          "internalType": "address",
          "name": "owner",
          "type": "address"
        },
        {
          "internalType": "address",
          "name": "operator",
          "type": "address"
        }
      ],
      "name": "isApprovedForAll",
      "outputs": [
        {
          "internalType": "bool",
          "name": "",
          "type": "bool"
        }
      ],
      "stateMutability": "view",
      "type": "function",
      "constant": true
    },
    {
      "inputs": [],
      "name": "name",
      "outputs": [
        {
          "internalType": "string",
          "name": "",
          "type": "string"
        }
      ],
      "stateMutability": "view",
      "type": "function",
      "constant": true
    },
    {
      "inputs": [],
      "name": "owner",
      "outputs": [
        {
          "internalType": "address",
          "name": "",
          "type": "address"
        }
      ],
      "stateMutability": "view",
      "type": "function",
      "constant": true
    },
    {
      "inputs": [
        {
          "internalType": "uint256",
          "name": "tokenId",
          "type": "uint256"
        }
      ],
      "name": "ownerOf",
      "outputs": [
        {
          "internalType": "address",
          "name": "",
          "type": "address"
        }
      ],
      "stateMutability": "view",
      "type": "function",
      "constant": true
    },
    {
      "inputs": [],
      "name": "renounceOwnership",
      "outputs": [],
      "stateMutability": "nonpayable",
      "type": "function"
    },
    {
      "inputs": [
        {
          "internalType": "address",
          "name": "from",
          "type": "address"
        },
        {
          "internalType": "address",
          "name": "to",
          "type": "address"
        },
        {
          "internalType": "uint256",
          "name": "tokenId",
          "type": "uint256"
        }
      ],
      "name": "safeTransferFrom",
      "outputs": [],
      "stateMutability": "nonpayable",
      "type": "function"
    },
    {
      "inputs": [
        {
          "internalType": "address",
          "name": "from",
          "type": "address"
        },
        {
          "internalType": "address",
          "name": "to",
          "type": "address"
        },
        {
          "internalType": "uint256",
          "name": "tokenId",
          "type": "uint256"
        },
        {
          "internalType": "bytes",
          "name": "_data",
          "type": "bytes"
        }
      ],
      "name": "safeTransferFrom",
      "outputs": [],
      "stateMutability": "nonpayable",
      "type": "function"
    },
    {
      "inputs": [
        {
          "internalType": "address",
          "name": "operator",
          "type": "address"
        },
        {
          "internalType": "bool",
          "name": "approved",
          "type": "bool"
        }
      ],
      "name": "setApprovalForAll",
      "outputs": [],
      "stateMutability": "nonpayable",
      "type": "function"
    },
    {
      "inputs": [],
      "name": "symbol",
      "outputs": [
        {
          "internalType": "string",
          "name": "",
          "type": "string"
        }
      ],
      "stateMutability": "view",
      "type": "function",
      "constant": true
    },
    {
      "inputs": [
        {
          "internalType": "uint256",
          "name": "index",
          "type": "uint256"
        }
      ],
      "name": "tokenByIndex",
      "outputs": [
        {
          "internalType": "uint256",
          "name": "",
          "type": "uint256"
        }
      ],
      "stateMutability": "view",
      "type": "function",
      "constant": true
    },
    {
      "inputs": [
        {
          "internalType": "uint256",
          "name": "",
          "type": "uint256"
        }
      ],
      "name": "tokenIdToPrice",
      "outputs": [
        {
          "internalType": "uint256",
          "name": "",
          "type": "uint256"
        }
      ],
      "stateMutability": "view",
      "type": "function",
      "constant": true
    },
    {
      "inputs": [
        {
          "internalType": "address",
          "name": "owner",
          "type": "address"
        },
        {
          "internalType": "uint256",
          "name": "index",
          "type": "uint256"
        }
      ],
      "name": "tokenOfOwnerByIndex",
      "outputs": [
        {
          "internalType": "uint256",
          "name": "",
          "type": "uint256"
        }
      ],
      "stateMutability": "view",
      "type": "function",
      "constant": true
    },
    {
      "inputs": [],
      "name": "totalSupply",
      "outputs": [
        {
          "internalType": "uint256",
          "name": "",
          "type": "uint256"
        }
      ],
      "stateMutability": "view",
      "type": "function",
      "constant": true
    },
    {
      "inputs": [
        {
          "internalType": "address",
          "name": "from",
          "type": "address"
        },
        {
          "internalType": "address",
          "name": "to",
          "type": "address"
        },
        {
          "internalType": "uint256",
          "name": "tokenId",
          "type": "uint256"
        }
      ],
      "name": "transferFrom",
      "outputs": [],
      "stateMutability": "nonpayable",
      "type": "function"
    },
    {
      "inputs": [
        {
          "internalType": "address",
          "name": "newOwner",
          "type": "address"
        }
      ],
      "name": "transferOwnership",
      "outputs": [],
      "stateMutability": "nonpayable",
      "type": "function"
    },
    {
      "inputs": [
        {
          "internalType": "string",
          "name": "_tokenURI",
          "type": "string"
        }
      ],
      "name": "mint",
      "outputs": [
        {
          "internalType": "uint256",
          "name": "",
          "type": "uint256"
        }
      ],
      "stateMutability": "nonpayable",
      "type": "function"
    },
    {
      "inputs": [
        {
          "internalType": "uint256",
          "name": "tokenId",
          "type": "uint256"
        }
      ],
      "name": "tokenURI",
      "outputs": [
        {
          "internalType": "string",
          "name": "",
          "type": "string"
        }
      ],
      "stateMutability": "view",
      "type": "function",
      "constant": true
    },
    {
      "inputs": [
        {
          "internalType": "bytes4",
          "name": "interfaceId",
          "type": "bytes4"
        }
      ],
      "name": "supportsInterface",
      "outputs": [
        {
          "internalType": "bool",
          "name": "",
          "type": "bool"
        }
      ],
      "stateMutability": "view",
      "type": "function",
      "constant": true
    },
    {
      "inputs": [
        {
          "internalType": "address",
          "name": "to",
          "type": "address"
        },
        {
          "internalType": "uint256",
          "name": "tokenId",
          "type": "uint256"
        }
      ],
      "name": "safeMint",
      "outputs": [],
      "stateMutability": "nonpayable",
      "type": "function"
    },
    {
      "inputs": [
        {
          "internalType": "address",
          "name": "owner",
          "type": "address"
        }
      ],
      "name": "tokensOfOwner",
      "outputs": [
        {
          "internalType": "uint256[]",
          "name": "",
          "type": "uint256[]"
        }
      ],
      "stateMutability": "view",
      "type": "function",
      "constant": true
    },
    {
      "inputs": [],
      "name": "allTokens",
      "outputs": [
        {
          "internalType": "uint256[]",
          "name": "",
          "type": "uint256[]"
        }
      ],
      "stateMutability": "view",
      "type": "function",
      "constant": true
    },
    {
      "inputs": [
        {
          "internalType": "uint256",
          "name": "_tokenId",
          "type": "uint256"
        },
        {
          "internalType": "uint256",
          "name": "_price",
          "type": "uint256"
        }
      ],
      "name": "allowBuy",
      "outputs": [],
      "stateMutability": "nonpayable",
      "type": "function"
    },
    {
      "inputs": [
        {
          "internalType": "uint256",
          "name": "_tokenId",
          "type": "uint256"
        }
      ],
      "name": "disallowBuy",
      "outputs": [],
      "stateMutability": "nonpayable",
      "type": "function"
    },
    {
      "inputs": [
        {
          "internalType": "uint256",
          "name": "_tokenId",
          "type": "uint256"
        }
      ],
      "name": "isBuy",
      "outputs": [
        {
          "internalType": "bool",
          "name": "",
          "type": "bool"
        }
      ],
      "stateMutability": "view",
      "type": "function",
      "constant": true
    },
    {
      "inputs": [
        {
          "internalType": "uint256",
          "name": "_tokenId",
          "type": "uint256"
        }
      ],
      "name": "priceOf",
      "outputs": [
        {
          "internalType": "uint256",
          "name": "",
          "type": "uint256"
        }
      ],
      "stateMutability": "view",
      "type": "function",
      "constant": true
    },
    {
      "inputs": [
        {
          "internalType": "uint256",
          "name": "_tokenId",
          "type": "uint256"
        }
      ],
      "name": "buy",
      "outputs": [],
      "stateMutability": "payable",
      "type": "function",
      "payable": true
    }
  ],
  "bytecode": "0x60806040523480156200001157600080fd5b506040518060400160405280600a81526020017f424154444f4e4753414e000000000000000000000000000000000000000000008152506040518060400160405280600381526020017f4244530000000000000000000000000000000000000000000000000000000000815250816000908051906020019062000096929190620001a6565b508060019080519060200190620000af929190620001a6565b505050620000d2620000c6620000d860201b60201c565b620000e060201b60201c565b620002bb565b600033905090565b6000600b60009054906101000a900473ffffffffffffffffffffffffffffffffffffffff16905081600b60006101000a81548173ffffffffffffffffffffffffffffffffffffffff021916908373ffffffffffffffffffffffffffffffffffffffff1602179055508173ffffffffffffffffffffffffffffffffffffffff168173ffffffffffffffffffffffffffffffffffffffff167f8be0079c531659141344cd1fd0a4f28419497f9722a3daafe3b4186f6b6457e060405160405180910390a35050565b828054620001b49062000256565b90600052602060002090601f016020900481019282620001d8576000855562000224565b82601f10620001f357805160ff191683800117855562000224565b8280016001018555821562000224579182015b828111156200022357825182559160200191906001019062000206565b5b50905062000233919062000237565b5090565b5b808211156200025257600081600090555060010162000238565b5090565b600060028204905060018216806200026f57607f821691505b602082108114156200028657620002856200028c565b5b50919050565b7f4e487b7100000000000000000000000000000000000000000000000000000000600052602260045260246000fd5b6142a580620002cb6000396000f3fe6080604052600436106101c25760003560e01c80638da5cb5b116100f7578063bbb5e8d311610095578063d96a094a11610064578063d96a094a1461069c578063e985e9c5146106b8578063f2fde38b146106f5578063f4812eb91461071e576101c2565b8063bbb5e8d3146105d0578063c87b56dd146105f9578063d499131214610636578063d85d3d271461065f576101c2565b8063a22cb465116100d1578063a22cb46514610504578063a80d33fb1461052d578063b88d4fde1461056a578063b9186d7d14610593576101c2565b80638da5cb5b1461048557806395d89b41146104b0578063a1448194146104db576101c2565b806342842e0e116101645780636ff97f1d1161013e5780636ff97f1d146103c957806370a08231146103f4578063715018a6146104315780638462151c14610448576101c2565b806342842e0e146103265780634f6ccce71461034f5780636352211e1461038c576101c2565b8063095ea7b3116101a0578063095ea7b31461026c57806318160ddd1461029557806323b872dd146102c05780632f745c59146102e9576101c2565b806301ffc9a7146101c757806306fdde0314610204578063081812fc1461022f575b600080fd5b3480156101d357600080fd5b506101ee60048036038101906101e99190612f33565b61075b565b6040516101fb9190613ac4565b60405180910390f35b34801561021057600080fd5b5061021961076d565b6040516102269190613adf565b60405180910390f35b34801561023b57600080fd5b5061025660048036038101906102519190612fc6565b6107ff565b6040516102639190613a04565b60405180910390f35b34801561027857600080fd5b50610293600480360381019061028e9190612ef7565b610884565b005b3480156102a157600080fd5b506102aa61099c565b6040516102b79190613e01565b60405180910390f35b3480156102cc57600080fd5b506102e760048036038101906102e29190612df1565b6109a9565b005b3480156102f557600080fd5b50610310600480360381019061030b9190612ef7565b610a09565b60405161031d9190613e01565b60405180910390f35b34801561033257600080fd5b5061034d60048036038101906103489190612df1565b610aae565b005b34801561035b57600080fd5b5061037660048036038101906103719190612fc6565b610ace565b6040516103839190613e01565b60405180910390f35b34801561039857600080fd5b506103b360048036038101906103ae9190612fc6565b610b65565b6040516103c09190613a04565b60405180910390f35b3480156103d557600080fd5b506103de610c17565b6040516103eb9190613aa2565b60405180910390f35b34801561040057600080fd5b5061041b60048036038101906104169190612d8c565b610d0d565b6040516104289190613e01565b60405180910390f35b34801561043d57600080fd5b50610446610dc5565b005b34801561045457600080fd5b5061046f600480360381019061046a9190612d8c565b610e4d565b60405161047c9190613aa2565b60405180910390f35b34801561049157600080fd5b5061049a610f47565b6040516104a79190613a04565b60405180910390f35b3480156104bc57600080fd5b506104c5610f71565b6040516104d29190613adf565b60405180910390f35b3480156104e757600080fd5b5061050260048036038101906104fd9190612ef7565b611003565b005b34801561051057600080fd5b5061052b60048036038101906105269190612ebb565b61108d565b005b34801561053957600080fd5b50610554600480360381019061054f9190612fc6565b6110a3565b6040516105619190613ac4565b60405180910390f35b34801561057657600080fd5b50610591600480360381019061058c9190612e40565b6110c2565b005b34801561059f57600080fd5b506105ba60048036038101906105b59190612fc6565b611124565b6040516105c79190613e01565b60405180910390f35b3480156105dc57600080fd5b506105f760048036038101906105f29190612fef565b611141565b005b34801561060557600080fd5b50610620600480360381019061061b9190612fc6565b61121d565b60405161062d9190613adf565b60405180910390f35b34801561064257600080fd5b5061065d60048036038101906106589190612fc6565b61122f565b005b34801561066b57600080fd5b5061068660048036038101906106819190612f85565b6112c8565b6040516106939190613e01565b60405180910390f35b6106b660048036038101906106b19190612fc6565b611306565b005b3480156106c457600080fd5b506106df60048036038101906106da9190612db5565b611469565b6040516106ec9190613ac4565b60405180910390f35b34801561070157600080fd5b5061071c60048036038101906107179190612d8c565b6114fd565b005b34801561072a57600080fd5b5061074560048036038101906107409190612fc6565b6115f5565b6040516107529190613e01565b60405180910390f35b60006107668261160d565b9050919050565b60606000805461077c9061409a565b80601f01602080910402602001604051908101604052809291908181526020018280546107a89061409a565b80156107f55780601f106107ca576101008083540402835291602001916107f5565b820191906000526020600020905b8154815290600101906020018083116107d857829003601f168201915b5050505050905090565b600061080a82611687565b610849576040517f08c379a000000000000000000000000000000000000000000000000000000000815260040161084090613cc1565b60405180910390fd5b6004600083815260200190815260200160002060009054906101000a900473ffffffffffffffffffffffffffffffffffffffff169050919050565b600061088f82610b65565b90508073ffffffffffffffffffffffffffffffffffffffff168373ffffffffffffffffffffffffffffffffffffffff161415610900576040517f08c379a00000000000000000000000000000000000000000000000000000000081526004016108f790613d81565b60405180910390fd5b8073ffffffffffffffffffffffffffffffffffffffff1661091f6116f3565b73ffffffffffffffffffffffffffffffffffffffff16148061094e575061094d816109486116f3565b611469565b5b61098d576040517f08c379a000000000000000000000000000000000000000000000000000000000815260040161098490613c01565b60405180910390fd5b61099783836116fb565b505050565b6000600980549050905090565b6109ba6109b46116f3565b826117b4565b6109f9576040517f08c379a00000000000000000000000000000000000000000000000000000000081526004016109f090613dc1565b60405180910390fd5b610a04838383611892565b505050565b6000610a1483610d0d565b8210610a55576040517f08c379a0000000000000000000000000000000000000000000000000000000008152600401610a4c90613b01565b60405180910390fd5b600760008473ffffffffffffffffffffffffffffffffffffffff1673ffffffffffffffffffffffffffffffffffffffff168152602001908152602001600020600083815260200190815260200160002054905092915050565b610ac9838383604051806020016040528060008152506110c2565b505050565b6000610ad861099c565b8210610b19576040517f08c379a0000000000000000000000000000000000000000000000000000000008152600401610b1090613de1565b60405180910390fd5b60098281548110610b53577f4e487b7100000000000000000000000000000000000000000000000000000000600052603260045260246000fd5b90600052602060002001549050919050565b6000806002600084815260200190815260200160002060009054906101000a900473ffffffffffffffffffffffffffffffffffffffff169050600073ffffffffffffffffffffffffffffffffffffffff168173ffffffffffffffffffffffffffffffffffffffff161415610c0e576040517f08c379a0000000000000000000000000000000000000000000000000000000008152600401610c0590613c41565b60405180910390fd5b80915050919050565b6060600080610c2461099c565b67ffffffffffffffff811115610c63577f4e487b7100000000000000000000000000000000000000000000000000000000600052604160045260246000fd5b604051908082528060200260200182016040528015610c915781602001602082028036833780820191505090505b50905060005b8151811015610d0457610ca981610ace565b925082828281518110610ce5577f4e487b7100000000000000000000000000000000000000000000000000000000600052603260045260246000fd5b6020026020010181815250508080610cfc906140cc565b915050610c97565b50809250505090565b60008073ffffffffffffffffffffffffffffffffffffffff168273ffffffffffffffffffffffffffffffffffffffff161415610d7e576040517f08c379a0000000000000000000000000000000000000000000000000000000008152600401610d7590613c21565b60405180910390fd5b600360008373ffffffffffffffffffffffffffffffffffffffff1673ffffffffffffffffffffffffffffffffffffffff168152602001908152602001600020549050919050565b610dcd6116f3565b73ffffffffffffffffffffffffffffffffffffffff16610deb610f47565b73ffffffffffffffffffffffffffffffffffffffff1614610e41576040517f08c379a0000000000000000000000000000000000000000000000000000000008152600401610e3890613d01565b60405180910390fd5b610e4b6000611aee565b565b6060600080610e5b84610d0d565b67ffffffffffffffff811115610e9a577f4e487b7100000000000000000000000000000000000000000000000000000000600052604160045260246000fd5b604051908082528060200260200182016040528015610ec85781602001602082028036833780820191505090505b50905060005b8151811015610f3c57610ee18582610a09565b925082828281518110610f1d577f4e487b7100000000000000000000000000000000000000000000000000000000600052603260045260246000fd5b6020026020010181815250508080610f34906140cc565b915050610ece565b508092505050919050565b6000600b60009054906101000a900473ffffffffffffffffffffffffffffffffffffffff16905090565b606060018054610f809061409a565b80601f0160208091040260200160405190810160405280929190818152602001828054610fac9061409a565b8015610ff95780601f10610fce57610100808354040283529160200191610ff9565b820191906000526020600020905b815481529060010190602001808311610fdc57829003601f168201915b5050505050905090565b61100b6116f3565b73ffffffffffffffffffffffffffffffffffffffff16611029610f47565b73ffffffffffffffffffffffffffffffffffffffff161461107f576040517f08c379a000000000000000000000000000000000000000000000000000000000815260040161107690613d01565b60405180910390fd5b6110898282611bb4565b5050565b61109f6110986116f3565b8383611bd2565b5050565b600080600d600084815260200190815260200160002054119050919050565b6110d36110cd6116f3565b836117b4565b611112576040517f08c379a000000000000000000000000000000000000000000000000000000000815260040161110990613dc1565b60405180910390fd5b61111e84848484611d3f565b50505050565b6000600d6000838152602001908152602001600020549050919050565b61114a82610b65565b73ffffffffffffffffffffffffffffffffffffffff166111686116f3565b73ffffffffffffffffffffffffffffffffffffffff16146111be576040517f08c379a00000000000000000000000000000000000000000000000000000000081526004016111b590613da1565b60405180910390fd5b60008111611201576040517f08c379a00000000000000000000000000000000000000000000000000000000081526004016111f890613d41565b60405180910390fd5b80600d6000848152602001908152602001600020819055505050565b606061122882611d9b565b9050919050565b61123881610b65565b73ffffffffffffffffffffffffffffffffffffffff166112566116f3565b73ffffffffffffffffffffffffffffffffffffffff16146112ac576040517f08c379a00000000000000000000000000000000000000000000000000000000081526004016112a390613da1565b60405180910390fd5b6000600d60008381526020019081526020016000208190555050565b60006112d4600c611eed565b60006112e0600c611f03565b90506112f36112ed6116f3565b82611f11565b6112fd81846120df565b80915050919050565b6000600d600083815260200190815260200160002054905060008111611361576040517f08c379a000000000000000000000000000000000000000000000000000000000815260040161135890613b41565b60405180910390fd5b8034146113a3576040517f08c379a000000000000000000000000000000000000000000000000000000000815260040161139a90613ce1565b60405180910390fd5b60006113ae83610b65565b90506113c2816113bc6116f3565b85611892565b6000600d6000858152602001908152602001600020819055508073ffffffffffffffffffffffffffffffffffffffff166108fc349081150290604051600060405180830381858888f19350505050158015611421573d6000803e3d6000fd5b507f608f6ac9327c2bf4d3c77adf447d2c448ba7b0971e0aaa9aa03f7ac29d874a448161144c6116f3565b8460405161145c93929190613a1f565b60405180910390a1505050565b6000600560008473ffffffffffffffffffffffffffffffffffffffff1673ffffffffffffffffffffffffffffffffffffffff16815260200190815260200160002060008373ffffffffffffffffffffffffffffffffffffffff1673ffffffffffffffffffffffffffffffffffffffff16815260200190815260200160002060009054906101000a900460ff16905092915050565b6115056116f3565b73ffffffffffffffffffffffffffffffffffffffff16611523610f47565b73ffffffffffffffffffffffffffffffffffffffff1614611579576040517f08c379a000000000000000000000000000000000000000000000000000000000815260040161157090613d01565b60405180910390fd5b600073ffffffffffffffffffffffffffffffffffffffff168173ffffffffffffffffffffffffffffffffffffffff1614156115e9576040517f08c379a00000000000000000000000000000000000000000000000000000000081526004016115e090613b61565b60405180910390fd5b6115f281611aee565b50565b600d6020528060005260406000206000915090505481565b60007f780e9d63000000000000000000000000000000000000000000000000000000007bffffffffffffffffffffffffffffffffffffffffffffffffffffffff1916827bffffffffffffffffffffffffffffffffffffffffffffffffffffffff19161480611680575061167f82612153565b5b9050919050565b60008073ffffffffffffffffffffffffffffffffffffffff166002600084815260200190815260200160002060009054906101000a900473ffffffffffffffffffffffffffffffffffffffff1673ffffffffffffffffffffffffffffffffffffffff1614159050919050565b600033905090565b816004600083815260200190815260200160002060006101000a81548173ffffffffffffffffffffffffffffffffffffffff021916908373ffffffffffffffffffffffffffffffffffffffff160217905550808273ffffffffffffffffffffffffffffffffffffffff1661176e83610b65565b73ffffffffffffffffffffffffffffffffffffffff167f8c5be1e5ebec7d5bd14f71427d1e84f3dd0314c0f7b2291e5b200ac8c7c3b92560405160405180910390a45050565b60006117bf82611687565b6117fe576040517f08c379a00000000000000000000000000000000000000000000000000000000081526004016117f590613be1565b60405180910390fd5b600061180983610b65565b90508073ffffffffffffffffffffffffffffffffffffffff168473ffffffffffffffffffffffffffffffffffffffff16148061187857508373ffffffffffffffffffffffffffffffffffffffff16611860846107ff565b73ffffffffffffffffffffffffffffffffffffffff16145b8061188957506118888185611469565b5b91505092915050565b8273ffffffffffffffffffffffffffffffffffffffff166118b282610b65565b73ffffffffffffffffffffffffffffffffffffffff1614611908576040517f08c379a00000000000000000000000000000000000000000000000000000000081526004016118ff90613d21565b60405180910390fd5b600073ffffffffffffffffffffffffffffffffffffffff168273ffffffffffffffffffffffffffffffffffffffff161415611978576040517f08c379a000000000000000000000000000000000000000000000000000000000815260040161196f90613ba1565b60405180910390fd5b611983838383612235565b61198e6000826116fb565b6001600360008573ffffffffffffffffffffffffffffffffffffffff1673ffffffffffffffffffffffffffffffffffffffff16815260200190815260200160002060008282546119de9190613fb0565b925050819055506001600360008473ffffffffffffffffffffffffffffffffffffffff1673ffffffffffffffffffffffffffffffffffffffff1681526020019081526020016000206000828254611a359190613f29565b92505081905550816002600083815260200190815260200160002060006101000a81548173ffffffffffffffffffffffffffffffffffffffff021916908373ffffffffffffffffffffffffffffffffffffffff160217905550808273ffffffffffffffffffffffffffffffffffffffff168473ffffffffffffffffffffffffffffffffffffffff167fddf252ad1be2c89b69c2b068fc378daa952ba7f163c4a11628f55a4df523b3ef60405160405180910390a4505050565b6000600b60009054906101000a900473ffffffffffffffffffffffffffffffffffffffff16905081600b60006101000a81548173ffffffffffffffffffffffffffffffffffffffff021916908373ffffffffffffffffffffffffffffffffffffffff1602179055508173ffffffffffffffffffffffffffffffffffffffff168173ffffffffffffffffffffffffffffffffffffffff167f8be0079c531659141344cd1fd0a4f28419497f9722a3daafe3b4186f6b6457e060405160405180910390a35050565b611bce828260405180602001604052806000815250612245565b5050565b8173ffffffffffffffffffffffffffffffffffffffff168373ffffffffffffffffffffffffffffffffffffffff161415611c41576040517f08c379a0000000000000000000000000000000000000000000000000000000008152600401611c3890613bc1565b60405180910390fd5b80600560008573ffffffffffffffffffffffffffffffffffffffff1673ffffffffffffffffffffffffffffffffffffffff16815260200190815260200160002060008473ffffffffffffffffffffffffffffffffffffffff1673ffffffffffffffffffffffffffffffffffffffff16815260200190815260200160002060006101000a81548160ff0219169083151502179055508173ffffffffffffffffffffffffffffffffffffffff168373ffffffffffffffffffffffffffffffffffffffff167f17307eab39ab6107e8899845ad3d59bd9653f200f220920489ca2b5937696c3183604051611d329190613ac4565b60405180910390a3505050565b611d4a848484611892565b611d56848484846122a0565b611d95576040517f08c379a0000000000000000000000000000000000000000000000000000000008152600401611d8c90613b21565b60405180910390fd5b50505050565b6060611da682611687565b611de5576040517f08c379a0000000000000000000000000000000000000000000000000000000008152600401611ddc90613ca1565b60405180910390fd5b6000600660008481526020019081526020016000208054611e059061409a565b80601f0160208091040260200160405190810160405280929190818152602001828054611e319061409a565b8015611e7e5780601f10611e5357610100808354040283529160200191611e7e565b820191906000526020600020905b815481529060010190602001808311611e6157829003601f168201915b505050505090506000611e8f612437565b9050600081511415611ea5578192505050611ee8565b600082511115611eda578082604051602001611ec29291906139e0565b60405160208183030381529060405292505050611ee8565b611ee38461244e565b925050505b919050565b6001816000016000828254019250508190555050565b600081600001549050919050565b600073ffffffffffffffffffffffffffffffffffffffff168273ffffffffffffffffffffffffffffffffffffffff161415611f81576040517f08c379a0000000000000000000000000000000000000000000000000000000008152600401611f7890613c81565b60405180910390fd5b611f8a81611687565b15611fca576040517f08c379a0000000000000000000000000000000000000000000000000000000008152600401611fc190613b81565b60405180910390fd5b611fd660008383612235565b6001600360008473ffffffffffffffffffffffffffffffffffffffff1673ffffffffffffffffffffffffffffffffffffffff16815260200190815260200160002060008282546120269190613f29565b92505081905550816002600083815260200190815260200160002060006101000a81548173ffffffffffffffffffffffffffffffffffffffff021916908373ffffffffffffffffffffffffffffffffffffffff160217905550808273ffffffffffffffffffffffffffffffffffffffff16600073ffffffffffffffffffffffffffffffffffffffff167fddf252ad1be2c89b69c2b068fc378daa952ba7f163c4a11628f55a4df523b3ef60405160405180910390a45050565b6120e882611687565b612127576040517f08c379a000000000000000000000000000000000000000000000000000000000815260040161211e90613c61565b60405180910390fd5b8060066000848152602001908152602001600020908051906020019061214e929190612bb0565b505050565b60007f80ac58cd000000000000000000000000000000000000000000000000000000007bffffffffffffffffffffffffffffffffffffffffffffffffffffffff1916827bffffffffffffffffffffffffffffffffffffffffffffffffffffffff1916148061221e57507f5b5e139f000000000000000000000000000000000000000000000000000000007bffffffffffffffffffffffffffffffffffffffffffffffffffffffff1916827bffffffffffffffffffffffffffffffffffffffffffffffffffffffff1916145b8061222e575061222d826124f5565b5b9050919050565b61224083838361255f565b505050565b61224f8383611f11565b61225c60008484846122a0565b61229b576040517f08c379a000000000000000000000000000000000000000000000000000000000815260040161229290613b21565b60405180910390fd5b505050565b60006122c18473ffffffffffffffffffffffffffffffffffffffff16612673565b1561242a578373ffffffffffffffffffffffffffffffffffffffff1663150b7a026122ea6116f3565b8786866040518563ffffffff1660e01b815260040161230c9493929190613a56565b602060405180830381600087803b15801561232657600080fd5b505af192505050801561235757506040513d601f19601f820116820180604052508101906123549190612f5c565b60015b6123da573d8060008114612387576040519150601f19603f3d011682016040523d82523d6000602084013e61238c565b606091505b506000815114156123d2576040517f08c379a00000000000000000000000000000000000000000000000000000000081526004016123c990613b21565b60405180910390fd5b805181602001fd5b63150b7a0260e01b7bffffffffffffffffffffffffffffffffffffffffffffffffffffffff1916817bffffffffffffffffffffffffffffffffffffffffffffffffffffffff19161491505061242f565b600190505b949350505050565b606060405180602001604052806000815250905090565b606061245982611687565b612498576040517f08c379a000000000000000000000000000000000000000000000000000000000815260040161248f90613d61565b60405180910390fd5b60006124a2612437565b905060008151116124c257604051806020016040528060008152506124ed565b806124cc84612686565b6040516020016124dd9291906139e0565b6040516020818303038152906040525b915050919050565b60007f01ffc9a7000000000000000000000000000000000000000000000000000000007bffffffffffffffffffffffffffffffffffffffffffffffffffffffff1916827bffffffffffffffffffffffffffffffffffffffffffffffffffffffff1916149050919050565b61256a838383612833565b600073ffffffffffffffffffffffffffffffffffffffff168373ffffffffffffffffffffffffffffffffffffffff1614156125ad576125a881612838565b6125ec565b8173ffffffffffffffffffffffffffffffffffffffff168373ffffffffffffffffffffffffffffffffffffffff16146125eb576125ea8382612881565b5b5b600073ffffffffffffffffffffffffffffffffffffffff168273ffffffffffffffffffffffffffffffffffffffff16141561262f5761262a816129ee565b61266e565b8273ffffffffffffffffffffffffffffffffffffffff168273ffffffffffffffffffffffffffffffffffffffff161461266d5761266c8282612b31565b5b5b505050565b600080823b905060008111915050919050565b606060008214156126ce576040518060400160405280600181526020017f3000000000000000000000000000000000000000000000000000000000000000815250905061282e565b600082905060005b600082146127005780806126e9906140cc565b915050600a826126f99190613f7f565b91506126d6565b60008167ffffffffffffffff811115612742577f4e487b7100000000000000000000000000000000000000000000000000000000600052604160045260246000fd5b6040519080825280601f01601f1916602001820160405280156127745781602001600182028036833780820191505090505b5090505b600085146128275760018261278d9190613fb0565b9150600a8561279c9190614115565b60306127a89190613f29565b60f81b8183815181106127e4577f4e487b7100000000000000000000000000000000000000000000000000000000600052603260045260246000fd5b60200101907effffffffffffffffffffffffffffffffffffffffffffffffffffffffffffff1916908160001a905350600a856128209190613f7f565b9450612778565b8093505050505b919050565b505050565b600980549050600a600083815260200190815260200160002081905550600981908060018154018082558091505060019003906000526020600020016000909190919091505550565b6000600161288e84610d0d565b6128989190613fb0565b905060006008600084815260200190815260200160002054905081811461297d576000600760008673ffffffffffffffffffffffffffffffffffffffff1673ffffffffffffffffffffffffffffffffffffffff168152602001908152602001600020600084815260200190815260200160002054905080600760008773ffffffffffffffffffffffffffffffffffffffff1673ffffffffffffffffffffffffffffffffffffffff168152602001908152602001600020600084815260200190815260200160002081905550816008600083815260200190815260200160002081905550505b6008600084815260200190815260200160002060009055600760008573ffffffffffffffffffffffffffffffffffffffff1673ffffffffffffffffffffffffffffffffffffffff16815260200190815260200160002060008381526020019081526020016000206000905550505050565b60006001600980549050612a029190613fb0565b90506000600a6000848152602001908152602001600020549050600060098381548110612a58577f4e487b7100000000000000000000000000000000000000000000000000000000600052603260045260246000fd5b906000526020600020015490508060098381548110612aa0577f4e487b7100000000000000000000000000000000000000000000000000000000600052603260045260246000fd5b906000526020600020018190555081600a600083815260200190815260200160002081905550600a6000858152602001908152602001600020600090556009805480612b15577f4e487b7100000000000000000000000000000000000000000000000000000000600052603160045260246000fd5b6001900381819060005260206000200160009055905550505050565b6000612b3c83610d0d565b905081600760008573ffffffffffffffffffffffffffffffffffffffff1673ffffffffffffffffffffffffffffffffffffffff168152602001908152602001600020600083815260200190815260200160002081905550806008600084815260200190815260200160002081905550505050565b828054612bbc9061409a565b90600052602060002090601f016020900481019282612bde5760008555612c25565b82601f10612bf757805160ff1916838001178555612c25565b82800160010185558215612c25579182015b82811115612c24578251825591602001919060010190612c09565b5b509050612c329190612c36565b5090565b5b80821115612c4f576000816000905550600101612c37565b5090565b6000612c66612c6184613e4d565b613e1c565b905082815260208101848484011115612c7e57600080fd5b612c89848285614058565b509392505050565b6000612ca4612c9f84613e7d565b613e1c565b905082815260208101848484011115612cbc57600080fd5b612cc7848285614058565b509392505050565b600081359050612cde81614213565b92915050565b600081359050612cf38161422a565b92915050565b600081359050612d0881614241565b92915050565b600081519050612d1d81614241565b92915050565b600082601f830112612d3457600080fd5b8135612d44848260208601612c53565b91505092915050565b600082601f830112612d5e57600080fd5b8135612d6e848260208601612c91565b91505092915050565b600081359050612d8681614258565b92915050565b600060208284031215612d9e57600080fd5b6000612dac84828501612ccf565b91505092915050565b60008060408385031215612dc857600080fd5b6000612dd685828601612ccf565b9250506020612de785828601612ccf565b9150509250929050565b600080600060608486031215612e0657600080fd5b6000612e1486828701612ccf565b9350506020612e2586828701612ccf565b9250506040612e3686828701612d77565b9150509250925092565b60008060008060808587031215612e5657600080fd5b6000612e6487828801612ccf565b9450506020612e7587828801612ccf565b9350506040612e8687828801612d77565b925050606085013567ffffffffffffffff811115612ea357600080fd5b612eaf87828801612d23565b91505092959194509250565b60008060408385031215612ece57600080fd5b6000612edc85828601612ccf565b9250506020612eed85828601612ce4565b9150509250929050565b60008060408385031215612f0a57600080fd5b6000612f1885828601612ccf565b9250506020612f2985828601612d77565b9150509250929050565b600060208284031215612f4557600080fd5b6000612f5384828501612cf9565b91505092915050565b600060208284031215612f6e57600080fd5b6000612f7c84828501612d0e565b91505092915050565b600060208284031215612f9757600080fd5b600082013567ffffffffffffffff811115612fb157600080fd5b612fbd84828501612d4d565b91505092915050565b600060208284031215612fd857600080fd5b6000612fe684828501612d77565b91505092915050565b6000806040838503121561300257600080fd5b600061301085828601612d77565b925050602061302185828601612d77565b9150509250929050565b600061303783836139c2565b60208301905092915050565b61304c81613fe4565b82525050565b600061305d82613ebd565b6130678185613eeb565b935061307283613ead565b8060005b838110156130a357815161308a888261302b565b975061309583613ede565b925050600181019050613076565b5085935050505092915050565b6130b981613ff6565b82525050565b60006130ca82613ec8565b6130d48185613efc565b93506130e4818560208601614067565b6130ed81614202565b840191505092915050565b600061310382613ed3565b61310d8185613f0d565b935061311d818560208601614067565b61312681614202565b840191505092915050565b600061313c82613ed3565b6131468185613f1e565b9350613156818560208601614067565b80840191505092915050565b600061316f602b83613f0d565b91507f455243373231456e756d657261626c653a206f776e657220696e646578206f7560008301527f74206f6620626f756e64730000000000000000000000000000000000000000006020830152604082019050919050565b60006131d5603283613f0d565b91507f4552433732313a207472616e7366657220746f206e6f6e20455243373231526560008301527f63656976657220696d706c656d656e74657200000000000000000000000000006020830152604082019050919050565b600061323b601a83613f0d565b91507f5468697320746f6b656e206973206e6f7420666f722073616c650000000000006000830152602082019050919050565b600061327b602683613f0d565b91507f4f776e61626c653a206e6577206f776e657220697320746865207a65726f206160008301527f64647265737300000000000000000000000000000000000000000000000000006020830152604082019050919050565b60006132e1601c83613f0d565b91507f4552433732313a20746f6b656e20616c7265616479206d696e746564000000006000830152602082019050919050565b6000613321602483613f0d565b91507f4552433732313a207472616e7366657220746f20746865207a65726f2061646460008301527f72657373000000000000000000000000000000000000000000000000000000006020830152604082019050919050565b6000613387601983613f0d565b91507f4552433732313a20617070726f766520746f2063616c6c6572000000000000006000830152602082019050919050565b60006133c7602c83613f0d565b91507f4552433732313a206f70657261746f7220717565727920666f72206e6f6e657860008301527f697374656e7420746f6b656e00000000000000000000000000000000000000006020830152604082019050919050565b600061342d603883613f0d565b91507f4552433732313a20617070726f76652063616c6c6572206973206e6f74206f7760008301527f6e6572206e6f7220617070726f76656420666f7220616c6c00000000000000006020830152604082019050919050565b6000613493602a83613f0d565b91507f4552433732313a2062616c616e636520717565727920666f7220746865207a6560008301527f726f2061646472657373000000000000000000000000000000000000000000006020830152604082019050919050565b60006134f9602983613f0d565b91507f4552433732313a206f776e657220717565727920666f72206e6f6e657869737460008301527f656e7420746f6b656e00000000000000000000000000000000000000000000006020830152604082019050919050565b600061355f602e83613f0d565b91507f45524337323155524953746f726167653a2055524920736574206f66206e6f6e60008301527f6578697374656e7420746f6b656e0000000000000000000000000000000000006020830152604082019050919050565b60006135c5602083613f0d565b91507f4552433732313a206d696e7420746f20746865207a65726f20616464726573736000830152602082019050919050565b6000613605603183613f0d565b91507f45524337323155524953746f726167653a2055524920717565727920666f722060008301527f6e6f6e6578697374656e7420746f6b656e0000000000000000000000000000006020830152604082019050919050565b600061366b602c83613f0d565b91507f4552433732313a20617070726f76656420717565727920666f72206e6f6e657860008301527f697374656e7420746f6b656e00000000000000000000000000000000000000006020830152604082019050919050565b60006136d1600f83613f0d565b91507f496e636f72726563742076616c756500000000000000000000000000000000006000830152602082019050919050565b6000613711602083613f0d565b91507f4f776e61626c653a2063616c6c6572206973206e6f7420746865206f776e65726000830152602082019050919050565b6000613751602983613f0d565b91507f4552433732313a207472616e73666572206f6620746f6b656e2074686174206960008301527f73206e6f74206f776e00000000000000000000000000000000000000000000006020830152604082019050919050565b60006137b7600a83613f0d565b91507f5072696365207a65726f000000000000000000000000000000000000000000006000830152602082019050919050565b60006137f7602f83613f0d565b91507f4552433732314d657461646174613a2055524920717565727920666f72206e6f60008301527f6e6578697374656e7420746f6b656e00000000000000000000000000000000006020830152604082019050919050565b600061385d602183613f0d565b91507f4552433732313a20617070726f76616c20746f2063757272656e74206f776e6560008301527f72000000000000000000000000000000000000000000000000000000000000006020830152604082019050919050565b60006138c3601783613f0d565b91507f4e6f74206f776e6572206f66207468697320746f6b656e0000000000000000006000830152602082019050919050565b6000613903603183613f0d565b91507f4552433732313a207472616e736665722063616c6c6572206973206e6f74206f60008301527f776e6572206e6f7220617070726f7665640000000000000000000000000000006020830152604082019050919050565b6000613969602c83613f0d565b91507f455243373231456e756d657261626c653a20676c6f62616c20696e646578206f60008301527f7574206f6620626f756e647300000000000000000000000000000000000000006020830152604082019050919050565b6139cb8161404e565b82525050565b6139da8161404e565b82525050565b60006139ec8285613131565b91506139f88284613131565b91508190509392505050565b6000602082019050613a196000830184613043565b92915050565b6000606082019050613a346000830186613043565b613a416020830185613043565b613a4e60408301846139d1565b949350505050565b6000608082019050613a6b6000830187613043565b613a786020830186613043565b613a8560408301856139d1565b8181036060830152613a9781846130bf565b905095945050505050565b60006020820190508181036000830152613abc8184613052565b905092915050565b6000602082019050613ad960008301846130b0565b92915050565b60006020820190508181036000830152613af981846130f8565b905092915050565b60006020820190508181036000830152613b1a81613162565b9050919050565b60006020820190508181036000830152613b3a816131c8565b9050919050565b60006020820190508181036000830152613b5a8161322e565b9050919050565b60006020820190508181036000830152613b7a8161326e565b9050919050565b60006020820190508181036000830152613b9a816132d4565b9050919050565b60006020820190508181036000830152613bba81613314565b9050919050565b60006020820190508181036000830152613bda8161337a565b9050919050565b60006020820190508181036000830152613bfa816133ba565b9050919050565b60006020820190508181036000830152613c1a81613420565b9050919050565b60006020820190508181036000830152613c3a81613486565b9050919050565b60006020820190508181036000830152613c5a816134ec565b9050919050565b60006020820190508181036000830152613c7a81613552565b9050919050565b60006020820190508181036000830152613c9a816135b8565b9050919050565b60006020820190508181036000830152613cba816135f8565b9050919050565b60006020820190508181036000830152613cda8161365e565b9050919050565b60006020820190508181036000830152613cfa816136c4565b9050919050565b60006020820190508181036000830152613d1a81613704565b9050919050565b60006020820190508181036000830152613d3a81613744565b9050919050565b60006020820190508181036000830152613d5a816137aa565b9050919050565b60006020820190508181036000830152613d7a816137ea565b9050919050565b60006020820190508181036000830152613d9a81613850565b9050919050565b60006020820190508181036000830152613dba816138b6565b9050919050565b60006020820190508181036000830152613dda816138f6565b9050919050565b60006020820190508181036000830152613dfa8161395c565b9050919050565b6000602082019050613e1660008301846139d1565b92915050565b6000604051905081810181811067ffffffffffffffff82111715613e4357613e426141d3565b5b8060405250919050565b600067ffffffffffffffff821115613e6857613e676141d3565b5b601f19601f8301169050602081019050919050565b600067ffffffffffffffff821115613e9857613e976141d3565b5b601f19601f8301169050602081019050919050565b6000819050602082019050919050565b600081519050919050565b600081519050919050565b600081519050919050565b6000602082019050919050565b600082825260208201905092915050565b600082825260208201905092915050565b600082825260208201905092915050565b600081905092915050565b6000613f348261404e565b9150613f3f8361404e565b9250827fffffffffffffffffffffffffffffffffffffffffffffffffffffffffffffffff03821115613f7457613f73614146565b5b828201905092915050565b6000613f8a8261404e565b9150613f958361404e565b925082613fa557613fa4614175565b5b828204905092915050565b6000613fbb8261404e565b9150613fc68361404e565b925082821015613fd957613fd8614146565b5b828203905092915050565b6000613fef8261402e565b9050919050565b60008115159050919050565b60007fffffffff0000000000000000000000000000000000000000000000000000000082169050919050565b600073ffffffffffffffffffffffffffffffffffffffff82169050919050565b6000819050919050565b82818337600083830152505050565b60005b8381101561408557808201518184015260208101905061406a565b83811115614094576000848401525b50505050565b600060028204905060018216806140b257607f821691505b602082108114156140c6576140c56141a4565b5b50919050565b60006140d78261404e565b91507fffffffffffffffffffffffffffffffffffffffffffffffffffffffffffffffff82141561410a57614109614146565b5b600182019050919050565b60006141208261404e565b915061412b8361404e565b92508261413b5761413a614175565b5b828206905092915050565b7f4e487b7100000000000000000000000000000000000000000000000000000000600052601160045260246000fd5b7f4e487b7100000000000000000000000000000000000000000000000000000000600052601260045260246000fd5b7f4e487b7100000000000000000000000000000000000000000000000000000000600052602260045260246000fd5b7f4e487b7100000000000000000000000000000000000000000000000000000000600052604160045260246000fd5b6000601f19601f8301169050919050565b61421c81613fe4565b811461422757600080fd5b50565b61423381613ff6565b811461423e57600080fd5b50565b61424a81614002565b811461425557600080fd5b50565b6142618161404e565b811461426c57600080fd5b5056fea26469706673582212201db08c0b0e09851f930511ad60cefe01b882cbd3e3d049a86f9c4f4d00b7b34e64736f6c63430008000033",
  "immutableReferences": {},
  "source": "// SPDX-License-Identifier: MIT\npragma solidity ^0.8.0;\n\nimport \"@openzeppelin/contracts/token/ERC721/extensions/ERC721URIStorage.sol\";\nimport \"@openzeppelin/contracts/token/ERC721/extensions/ERC721Enumerable.sol\";\nimport \"@openzeppelin/contracts/utils/Counters.sol\";\nimport \"@openzeppelin/contracts/access/Ownable.sol\";\n\ncontract Estate is ERC721URIStorage, ERC721Enumerable, Ownable {\n    using Counters for Counters.Counter;\n    Counters.Counter private _tokenIds;\n\n    constructor() ERC721(\"BATDONGSAN\", \"BDS\") {}\n\n    function mint(string memory _tokenURI) public returns (uint256) {\n        _tokenIds.increment();\n\n        uint256 newItemId = _tokenIds.current();\n        _mint(_msgSender(), newItemId);\n        _setTokenURI(newItemId, _tokenURI);\n\n        return newItemId;\n    }\n\n    function _beforeTokenTransfer(\n        address from,\n        address to,\n        uint256 tokenId\n    ) internal override(ERC721, ERC721Enumerable) {\n        super._beforeTokenTransfer(from, to, tokenId);\n    }\n\n    function _burn(uint256 tokenId)\n        internal\n        override(ERC721, ERC721URIStorage)\n    {\n        super._burn(tokenId);\n    }\n\n    function tokenURI(uint256 tokenId)\n        public\n        view\n        override(ERC721, ERC721URIStorage)\n        returns (string memory)\n    {\n        return super.tokenURI(tokenId);\n    }\n\n    function supportsInterface(bytes4 interfaceId)\n        public\n        view\n        override(ERC721, ERC721Enumerable)\n        returns (bool)\n    {\n        return super.supportsInterface(interfaceId);\n    }\n\n    function safeMint(address to, uint256 tokenId) public onlyOwner {\n        _safeMint(to, tokenId);\n    }\n\n    function tokensOfOwner(address owner)\n        public\n        view\n        returns (uint256[] memory)\n    {\n        uint256 tokenId;\n        uint256[] memory listToken = new uint256[](balanceOf(owner));\n        for (uint256 index = 0; index < listToken.length; index++) {\n            tokenId = tokenOfOwnerByIndex(owner, index);\n            listToken[index] = tokenId;\n        }\n        return listToken;\n    }\n\n    function allTokens() public view returns (uint256[] memory) {\n        uint256 tokenId;\n        uint256[] memory listToken = new uint256[](totalSupply());\n        for (uint256 index = 0; index < listToken.length; index++) {\n            tokenId = tokenByIndex(index);\n            listToken[index] = tokenId;\n        }\n        return listToken;\n    }\n\n    event NftBought(address _seller, address _buyer, uint256 _price);\n\n    mapping(uint256 => uint256) public tokenIdToPrice;\n\n    function allowBuy(uint256 _tokenId, uint256 _price) external {\n        require(_msgSender() == ownerOf(_tokenId), \"Not owner of this token\");\n        require(_price > 0, \"Price zero\");\n        tokenIdToPrice[_tokenId] = _price;\n    }\n\n    function disallowBuy(uint256 _tokenId) external {\n        require(_msgSender() == ownerOf(_tokenId), \"Not owner of this token\");\n        tokenIdToPrice[_tokenId] = 0;\n    }\n\n    function isBuy(uint256 _tokenId) external view returns (bool) {\n        return tokenIdToPrice[_tokenId] > 0;\n    }\n\n    function priceOf(uint256 _tokenId) external view returns (uint256) {\n        return tokenIdToPrice[_tokenId];\n    }\n\n    function buy(uint256 _tokenId) external payable {\n        uint256 price = tokenIdToPrice[_tokenId];\n        require(price > 0, \"This token is not for sale\");\n        require(msg.value == price, \"Incorrect value\");\n\n        address seller = ownerOf(_tokenId);\n        _transfer(seller, _msgSender(), _tokenId);\n        tokenIdToPrice[_tokenId] = 0; // not for sale anymore\n        payable(seller).transfer(msg.value); // send the ETH to the seller\n\n        emit NftBought(seller, _msgSender(), price);\n    }\n}\n",
  "sourcePath": "/Volumes/MAC_SAMSUNG_DATA/STUDY/BLOCKCHAIN/NFT-realestate/contracts/Estate.sol",
  "compiler": {
    "name": "solc",
    "version": "0.8.0+commit.c7dfd78e.Emscripten.clang"
  },
  "schemaVersion": "3.4.4",
  "updatedAt": "2022-01-24T09:22:05.785Z",
  "networkType": "ethereum",
  "devdoc": {
    "kind": "dev",
    "methods": {
      "approve(address,uint256)": {
        "details": "See {IERC721-approve}."
      },
      "balanceOf(address)": {
        "details": "See {IERC721-balanceOf}."
      },
      "getApproved(uint256)": {
        "details": "See {IERC721-getApproved}."
      },
      "isApprovedForAll(address,address)": {
        "details": "See {IERC721-isApprovedForAll}."
      },
      "name()": {
        "details": "See {IERC721Metadata-name}."
      },
      "owner()": {
        "details": "Returns the address of the current owner."
      },
      "ownerOf(uint256)": {
        "details": "See {IERC721-ownerOf}."
      },
      "renounceOwnership()": {
        "details": "Leaves the contract without owner. It will not be possible to call `onlyOwner` functions anymore. Can only be called by the current owner. NOTE: Renouncing ownership will leave the contract without an owner, thereby removing any functionality that is only available to the owner."
      },
      "safeTransferFrom(address,address,uint256)": {
        "details": "See {IERC721-safeTransferFrom}."
      },
      "safeTransferFrom(address,address,uint256,bytes)": {
        "details": "See {IERC721-safeTransferFrom}."
      },
      "setApprovalForAll(address,bool)": {
        "details": "See {IERC721-setApprovalForAll}."
      },
      "symbol()": {
        "details": "See {IERC721Metadata-symbol}."
      },
      "tokenByIndex(uint256)": {
        "details": "See {IERC721Enumerable-tokenByIndex}."
      },
      "tokenOfOwnerByIndex(address,uint256)": {
        "details": "See {IERC721Enumerable-tokenOfOwnerByIndex}."
      },
      "totalSupply()": {
        "details": "See {IERC721Enumerable-totalSupply}."
      },
      "transferFrom(address,address,uint256)": {
        "details": "See {IERC721-transferFrom}."
      },
      "transferOwnership(address)": {
        "details": "Transfers ownership of the contract to a new account (`newOwner`). Can only be called by the current owner."
      }
    },
    "version": 1
  },
  "userdoc": {
    "kind": "user",
    "methods": {},
    "version": 1
  }
}